{
  "address": "0xee7141fa339b41d1423A2C67A2C24497eE76c005",
  "abi": [
    {
      "inputs": [],
      "stateMutability": "nonpayable",
      "type": "constructor"
    },
    {
      "anonymous": false,
      "inputs": [
        {
          "indexed": true,
          "internalType": "address",
          "name": "_owner",
          "type": "address"
        },
        {
          "indexed": true,
          "internalType": "address",
          "name": "_spender",
          "type": "address"
        },
        {
          "indexed": false,
          "internalType": "uint256",
          "name": "_value",
          "type": "uint256"
        }
      ],
      "name": "Approval",
      "type": "event"
    },
    {
      "anonymous": false,
      "inputs": [
        {
          "indexed": false,
          "internalType": "address",
          "name": "addr",
          "type": "address"
        },
        {
          "indexed": false,
          "internalType": "uint256",
          "name": "amount",
          "type": "uint256"
        }
      ],
      "name": "BuyRequestCheck",
      "type": "event"
    },
    {
      "anonymous": false,
      "inputs": [
        {
          "indexed": false,
          "internalType": "address",
          "name": "addrOwner",
          "type": "address"
        },
        {
          "indexed": false,
          "internalType": "uint256",
          "name": "energyAmount",
          "type": "uint256"
        },
        {
          "indexed": false,
          "internalType": "uint256",
          "name": "energyState",
          "type": "uint256"
        },
        {
          "indexed": false,
          "internalType": "uint256",
          "name": "timestamp",
          "type": "uint256"
        }
      ],
      "name": "EnergyCheck",
      "type": "event"
    },
    {
      "anonymous": false,
      "inputs": [
        {
          "indexed": false,
          "internalType": "address",
          "name": "addrProsumer",
          "type": "address"
        },
        {
          "indexed": false,
          "internalType": "address",
          "name": "addrConsumer",
          "type": "address"
        },
        {
          "indexed": false,
          "internalType": "uint256",
          "name": "value",
          "type": "uint256"
        },
        {
          "indexed": false,
          "internalType": "uint256",
          "name": "timestamp",
          "type": "uint256"
        }
      ],
      "name": "EnergyMatchedCheck",
      "type": "event"
    },
    {
      "anonymous": false,
      "inputs": [
        {
          "indexed": false,
          "internalType": "uint256",
          "name": "gen",
          "type": "uint256"
        }
      ],
      "name": "Gen",
      "type": "event"
    },
    {
      "anonymous": false,
      "inputs": [
        {
          "indexed": false,
          "internalType": "uint256",
          "name": "stime",
          "type": "uint256"
        },
        {
          "indexed": false,
          "internalType": "uint256",
          "name": "etime",
          "type": "uint256"
        }
      ],
      "name": "RoundStart",
      "type": "event"
    },
    {
      "anonymous": false,
      "inputs": [
        {
          "indexed": false,
          "internalType": "address",
          "name": "addr",
          "type": "address"
        },
        {
          "indexed": false,
          "internalType": "uint256",
          "name": "amount",
          "type": "uint256"
        }
      ],
      "name": "SellRequestCheck",
      "type": "event"
    },
    {
      "anonymous": false,
      "inputs": [
        {
          "indexed": true,
          "internalType": "address",
          "name": "_from",
          "type": "address"
        },
        {
          "indexed": true,
          "internalType": "address",
          "name": "_to",
          "type": "address"
        },
        {
          "indexed": false,
          "internalType": "uint256",
          "name": "_value",
          "type": "uint256"
        },
        {
          "indexed": false,
          "internalType": "uint256",
          "name": "balanceOfSender",
          "type": "uint256"
        },
        {
          "indexed": false,
          "internalType": "uint256",
          "name": "balanceOfReciever",
          "type": "uint256"
        }
      ],
      "name": "Transfer",
      "type": "event"
    },
    {
      "inputs": [],
      "name": "DECIMALS",
      "outputs": [
        {
          "internalType": "uint8",
          "name": "",
          "type": "uint8"
        }
      ],
      "stateMutability": "view",
      "type": "function"
    },
    {
      "inputs": [],
      "name": "DSO",
      "outputs": [
        {
          "internalType": "address",
          "name": "",
          "type": "address"
        }
      ],
      "stateMutability": "view",
      "type": "function"
    },
    {
      "inputs": [],
      "name": "MAX_ENERGYPRICE",
      "outputs": [
        {
          "internalType": "uint256",
          "name": "",
          "type": "uint256"
        }
      ],
      "stateMutability": "view",
      "type": "function"
    },
    {
      "inputs": [],
      "name": "NAME",
      "outputs": [
        {
          "internalType": "string",
          "name": "",
          "type": "string"
        }
      ],
      "stateMutability": "view",
      "type": "function"
    },
    {
      "inputs": [],
      "name": "STANDARD",
      "outputs": [
        {
          "internalType": "string",
          "name": "",
          "type": "string"
        }
      ],
      "stateMutability": "view",
      "type": "function"
    },
    {
      "inputs": [],
      "name": "SYMBOL",
      "outputs": [
        {
          "internalType": "string",
          "name": "",
          "type": "string"
        }
      ],
      "stateMutability": "view",
      "type": "function"
    },
    {
      "inputs": [
        {
          "internalType": "address",
          "name": "_owner",
          "type": "address"
        },
        {
          "internalType": "address",
          "name": "_spender",
          "type": "address"
        }
      ],
      "name": "allowance",
      "outputs": [
        {
          "internalType": "uint256",
          "name": "remaining",
          "type": "uint256"
        }
      ],
      "stateMutability": "view",
      "type": "function"
    },
    {
      "inputs": [
        {
          "internalType": "address",
          "name": "_spender",
          "type": "address"
        },
        {
          "internalType": "uint256",
          "name": "_value",
          "type": "uint256"
        }
      ],
      "name": "approve",
      "outputs": [
        {
          "internalType": "bool",
          "name": "success",
          "type": "bool"
        }
      ],
      "stateMutability": "nonpayable",
      "type": "function"
    },
    {
      "inputs": [
        {
          "internalType": "address",
          "name": "_owner",
          "type": "address"
        }
      ],
      "name": "balanceOf",
      "outputs": [
        {
          "internalType": "uint256",
          "name": "balance",
          "type": "uint256"
        }
      ],
      "stateMutability": "view",
      "type": "function"
    },
    {
      "inputs": [
        {
          "internalType": "address",
          "name": "_spender",
          "type": "address"
        },
        {
          "internalType": "uint256",
          "name": "_subtractedValue",
          "type": "uint256"
        }
      ],
      "name": "decreaseApproval",
      "outputs": [
        {
          "internalType": "bool",
          "name": "success",
          "type": "bool"
        }
      ],
      "stateMutability": "nonpayable",
      "type": "function"
    },
    {
      "inputs": [
        {
          "internalType": "uint256",
          "name": "",
          "type": "uint256"
        }
      ],
      "name": "demands",
      "outputs": [
        {
          "internalType": "address",
          "name": "addrConsumer",
          "type": "address"
        },
        {
          "internalType": "uint256",
          "name": "energyDemanded",
          "type": "uint256"
        }
      ],
      "stateMutability": "view",
      "type": "function"
    },
    {
      "inputs": [
        {
          "internalType": "uint256",
          "name": "",
          "type": "uint256"
        },
        {
          "internalType": "uint256",
          "name": "",
          "type": "uint256"
        }
      ],
      "name": "energys",
      "outputs": [
        {
          "internalType": "address",
          "name": "addrOwner",
          "type": "address"
        },
        {
          "internalType": "uint256",
          "name": "energyAmount",
          "type": "uint256"
        },
        {
          "internalType": "uint256",
          "name": "energyState",
          "type": "uint256"
        },
        {
          "internalType": "uint256",
          "name": "timestamp",
          "type": "uint256"
        }
      ],
      "stateMutability": "view",
      "type": "function"
    },
    {
      "inputs": [
        {
          "internalType": "address",
          "name": "_spender",
          "type": "address"
        },
        {
          "internalType": "uint256",
          "name": "_addedValue",
          "type": "uint256"
        }
      ],
      "name": "increaseApproval",
      "outputs": [
        {
          "internalType": "bool",
          "name": "success",
          "type": "bool"
        }
      ],
      "stateMutability": "nonpayable",
      "type": "function"
    },
    {
      "inputs": [
        {
          "internalType": "address",
          "name": "_owner",
          "type": "address"
        },
        {
          "internalType": "uint256",
          "name": "_amount",
          "type": "uint256"
        }
      ],
      "name": "inject",
      "outputs": [],
      "stateMutability": "nonpayable",
      "type": "function"
    },
    {
      "inputs": [
        {
          "internalType": "uint256",
          "name": "",
          "type": "uint256"
        }
      ],
      "name": "matches",
      "outputs": [
        {
          "internalType": "address",
          "name": "addrProsumer",
          "type": "address"
        },
        {
          "internalType": "address",
          "name": "addrConsumer",
          "type": "address"
        },
        {
          "internalType": "uint256",
          "name": "energyAmount",
          "type": "uint256"
        },
        {
          "internalType": "uint256",
          "name": "timestamp",
          "type": "uint256"
        }
      ],
      "stateMutability": "view",
      "type": "function"
    },
    {
      "inputs": [],
      "name": "matching",
      "outputs": [],
      "stateMutability": "nonpayable",
      "type": "function"
    },
    {
      "inputs": [],
      "name": "register",
      "outputs": [],
      "stateMutability": "nonpayable",
      "type": "function"
    },
    {
      "inputs": [
        {
          "internalType": "uint256",
          "name": "_amount",
          "type": "uint256"
        }
      ],
      "name": "requestBuy",
      "outputs": [],
      "stateMutability": "nonpayable",
      "type": "function"
    },
    {
      "inputs": [
        {
          "internalType": "uint256",
          "name": "_amount",
          "type": "uint256"
        }
      ],
      "name": "requestSell",
      "outputs": [],
      "stateMutability": "nonpayable",
      "type": "function"
    },
    {
      "inputs": [],
      "name": "roundStart",
      "outputs": [],
      "stateMutability": "nonpayable",
      "type": "function"
    },
    {
      "inputs": [
        {
          "internalType": "uint256",
          "name": "",
          "type": "uint256"
        }
      ],
      "name": "supplies",
      "outputs": [
        {
          "internalType": "address",
          "name": "addrProsumer",
          "type": "address"
        },
        {
          "internalType": "uint256",
          "name": "energySupplied",
          "type": "uint256"
        }
      ],
      "stateMutability": "view",
      "type": "function"
    },
    {
      "inputs": [],
      "name": "totalEnergyDemanded",
      "outputs": [
        {
          "internalType": "uint256",
          "name": "",
          "type": "uint256"
        }
      ],
      "stateMutability": "view",
      "type": "function"
    },
    {
      "inputs": [],
      "name": "totalEnergySupplied",
      "outputs": [
        {
          "internalType": "uint256",
          "name": "",
          "type": "uint256"
        }
      ],
      "stateMutability": "view",
      "type": "function"
    },
    {
      "inputs": [],
      "name": "totalSupply",
      "outputs": [
        {
          "internalType": "uint256",
          "name": "",
          "type": "uint256"
        }
      ],
      "stateMutability": "view",
      "type": "function"
    },
    {
      "inputs": [],
      "name": "totalUsers",
      "outputs": [
        {
          "internalType": "uint256",
          "name": "",
          "type": "uint256"
        }
      ],
      "stateMutability": "view",
      "type": "function"
    },
    {
      "inputs": [
        {
          "internalType": "uint256",
          "name": "_price",
          "type": "uint256"
        }
      ],
      "name": "trade",
      "outputs": [],
      "stateMutability": "nonpayable",
      "type": "function"
    },
    {
      "inputs": [
        {
          "internalType": "address",
          "name": "_to",
          "type": "address"
        },
        {
          "internalType": "uint256",
          "name": "_value",
          "type": "uint256"
        }
      ],
      "name": "transfer",
      "outputs": [
        {
          "internalType": "bool",
          "name": "success",
          "type": "bool"
        }
      ],
      "stateMutability": "nonpayable",
      "type": "function"
    },
    {
      "inputs": [
        {
          "internalType": "address",
          "name": "_from",
          "type": "address"
        },
        {
          "internalType": "address",
          "name": "_to",
          "type": "address"
        },
        {
          "internalType": "uint256",
          "name": "_value",
          "type": "uint256"
        }
      ],
      "name": "transferFrom",
      "outputs": [
        {
          "internalType": "bool",
          "name": "success",
          "type": "bool"
        }
      ],
      "stateMutability": "nonpayable",
      "type": "function"
    }
  ],
  "transactionHash": "0xf683067e9722ff4bb62a5476c20025179bc40f2046c3bf83533b8b7fd2b2af56",
  "args": [],
  "numDeployments": 1,
  "solcInputHash": "8b0a20d356573134c7fa887e147fdcc1",
  "bytecode": "0x60a06040523480156200001157600080fd5b50601260ff16600a62000025919062000374565b62989680620000359190620003c5565b600081905550601260ff16600a6200004e919062000374565b629896806200005e9190620003c5565b600160003373ffffffffffffffffffffffffffffffffffffffff1673ffffffffffffffffffffffffffffffffffffffff168152602001908152602001600020819055503373ffffffffffffffffffffffffffffffffffffffff16600073ffffffffffffffffffffffffffffffffffffffff167fc817d75deaa278e988c41cf549ef38fe195ab65e0e64cd67ba47f0d185690d58601260ff16600a62000104919062000374565b62989680620001149190620003c5565b600160008073ffffffffffffffffffffffffffffffffffffffff1673ffffffffffffffffffffffffffffffffffffffff16815260200190815260200160002054600160003373ffffffffffffffffffffffffffffffffffffffff1673ffffffffffffffffffffffffffffffffffffffff16815260200190815260200160002054604051620001a59392919062000421565b60405180910390a33373ffffffffffffffffffffffffffffffffffffffff1660808173ffffffffffffffffffffffffffffffffffffffff16815250506200045e565b7f4e487b7100000000000000000000000000000000000000000000000000000000600052601160045260246000fd5b60008160011c9050919050565b6000808291508390505b600185111562000275578086048111156200024d576200024c620001e7565b5b60018516156200025d5780820291505b80810290506200026d8562000216565b94506200022d565b94509492505050565b60008262000290576001905062000363565b81620002a0576000905062000363565b8160018114620002b95760028114620002c457620002fa565b600191505062000363565b60ff841115620002d957620002d8620001e7565b5b8360020a915084821115620002f357620002f2620001e7565b5b5062000363565b5060208310610133831016604e8410600b8410161715620003345782820a9050838111156200032e576200032d620001e7565b5b62000363565b62000343848484600162000223565b925090508184048111156200035d576200035c620001e7565b5b81810290505b9392505050565b6000819050919050565b600062000381826200036a565b91506200038e836200036a565b9250620003bd7fffffffffffffffffffffffffffffffffffffffffffffffffffffffffffffffff84846200027e565b905092915050565b6000620003d2826200036a565b9150620003df836200036a565b9250828202620003ef816200036a565b91508282048414831517620004095762000408620001e7565b5b5092915050565b6200041b816200036a565b82525050565b600060608201905062000438600083018662000410565b62000447602083018562000410565b62000456604083018462000410565b949350505050565b608051614bb56200049d6000396000818161068f01528181610dee015281816116f80152818161172b015281816117ba01526132f30152614bb56000f3fe608060405234801561001057600080fd5b50600436106101c45760003560e01c8063a3f4df7e116100f9578063dd62ed3e11610097578063e72c98f211610071578063e72c98f2146104fd578063f62de82814610530578063f76f8d7814610561578063feff92711461057f576101c4565b8063dd62ed3e14610493578063df1dd826146104c3578063e67fdc1a146104df576101c4565b8063bcaedade116100d3578063bcaedade14610409578063bff1f9e114610427578063d73dd62314610445578063d84ade5914610475576101c4565b8063a3f4df7e146103b1578063a9059cbb146103cf578063ae5ec2e9146103ff576101c4565b80632bed5fd811610166578063403658521161014057806340365852146103145780634768d4ef1461031e578063661884631461035157806370a0823114610381576101c4565b80632bed5fd8146102be5780632e0f2625146102da57806332a22bb6146102f8576101c4565b80631aa3a008116101a25780631aa3a0081461023557806322a568471461023f57806323b872dd1461025d57806326f1a1fd1461028d576101c4565b8063095ea7b3146101c95780630f83f028146101f957806318160ddd14610217575b600080fd5b6101e360048036038101906101de9190613e67565b61059b565b6040516101f09190613ec2565b60405180910390f35b61020161068d565b60405161020e9190613eec565b60405180910390f35b61021f6106b1565b60405161022c9190613f16565b60405180910390f35b61023d6106ba565b005b6102476109b0565b6040516102549190613f16565b60405180910390f35b61027760048036038101906102729190613f31565b6109b6565b6040516102849190613ec2565b60405180910390f35b6102a760048036038101906102a29190613f84565b610d98565b6040516102b5929190613fb1565b60405180910390f35b6102d860048036038101906102d39190613e67565b610dec565b005b6102e26113d3565b6040516102ef9190613ff6565b60405180910390f35b610312600480360381019061030d9190613f84565b6113d8565b005b61031c6117b8565b005b61033860048036038101906103339190613f84565b6118ad565b6040516103489493929190614011565b60405180910390f35b61036b60048036038101906103669190613e67565b61192d565b6040516103789190613ec2565b60405180910390f35b61039b60048036038101906103969190614056565b611bb7565b6040516103a89190613f16565b60405180910390f35b6103b9611c00565b6040516103c69190614113565b60405180910390f35b6103e960048036038101906103e49190613e67565b611c39565b6040516103f69190613ec2565b60405180910390f35b610407611ec8565b005b61041161308a565b60405161041e9190614113565b60405180910390f35b61042f6130c3565b60405161043c9190613f16565b60405180910390f35b61045f600480360381019061045a9190613e67565b6130c9565b60405161046c9190613ec2565b60405180910390f35b61047d613249565b60405161048a9190613f16565b60405180910390f35b6104ad60048036038101906104a89190614135565b61326a565b6040516104ba9190613f16565b60405180910390f35b6104dd60048036038101906104d89190613f84565b6132f1565b005b6104e7613750565b6040516104f49190613f16565b60405180910390f35b61051760048036038101906105129190614175565b613756565b60405161052794939291906141b5565b60405180910390f35b61054a60048036038101906105459190613f84565b6137cf565b604051610558929190613fb1565b60405180910390f35b610569613823565b6040516105769190614113565b60405180910390f35b61059960048036038101906105949190613f84565b61385c565b005b600081600260003373ffffffffffffffffffffffffffffffffffffffff1673ffffffffffffffffffffffffffffffffffffffff16815260200190815260200160002060008573ffffffffffffffffffffffffffffffffffffffff1673ffffffffffffffffffffffffffffffffffffffff168152602001908152602001600020819055508273ffffffffffffffffffffffffffffffffffffffff163373ffffffffffffffffffffffffffffffffffffffff167f8c5be1e5ebec7d5bd14f71427d1e84f3dd0314c0f7b2291e5b200ac8c7c3b9258460405161067b9190613f16565b60405180910390a36001905092915050565b7f000000000000000000000000000000000000000000000000000000000000000081565b60008054905090565b600554600960003373ffffffffffffffffffffffffffffffffffffffff1673ffffffffffffffffffffffffffffffffffffffff16815260200190815260200160002081905550600060405180608001604052803373ffffffffffffffffffffffffffffffffffffffff1681526020016000815260200160006004811115610744576107436141fa565b5b8152602001428152509050600b81908060018154018082558091505060019003906000526020600020906004020160009091909190915060008201518160000160006101000a81548173ffffffffffffffffffffffffffffffffffffffff021916908373ffffffffffffffffffffffffffffffffffffffff1602179055506020820151816001015560408201518160020155606082015181600301555050600a600b90806001815401808255809150506001900390600052602060002001600090919091909150908054610819929190613bde565b507f8037f136c26fa76fb52b6c6b9afe3e7844af9a5a61d21f5ceb8c4d95d4fb6f09600a6005548154811061085157610850614229565b5b9060005260206000200160008154811061086e5761086d614229565b5b906000526020600020906004020160000160009054906101000a900473ffffffffffffffffffffffffffffffffffffffff16600a600554815481106108b6576108b5614229565b5b906000526020600020016000815481106108d3576108d2614229565b5b906000526020600020906004020160010154600a600554815481106108fb576108fa614229565b5b9060005260206000200160008154811061091857610917614229565b5b906000526020600020906004020160020154600a600554815481106109405761093f614229565b5b9060005260206000200160008154811061095d5761095c614229565b5b90600052602060002090600402016003015460405161097f94939291906141b5565b60405180910390a16005600081548092919061099a90614287565b9190505550600b60006109ad9190613cbb565b50565b60045481565b60008073ffffffffffffffffffffffffffffffffffffffff168373ffffffffffffffffffffffffffffffffffffffff1603610a26576040517f08c379a0000000000000000000000000000000000000000000000000000000008152600401610a1d9061431b565b60405180910390fd5b600160008573ffffffffffffffffffffffffffffffffffffffff1673ffffffffffffffffffffffffffffffffffffffff16815260200190815260200160002054821115610aa8576040517f08c379a0000000000000000000000000000000000000000000000000000000008152600401610a9f90614387565b60405180910390fd5b600260008573ffffffffffffffffffffffffffffffffffffffff1673ffffffffffffffffffffffffffffffffffffffff16815260200190815260200160002060003373ffffffffffffffffffffffffffffffffffffffff1673ffffffffffffffffffffffffffffffffffffffff16815260200190815260200160002054821115610b67576040517f08c379a0000000000000000000000000000000000000000000000000000000008152600401610b5e906143f3565b60405180910390fd5b81600160008673ffffffffffffffffffffffffffffffffffffffff1673ffffffffffffffffffffffffffffffffffffffff1681526020019081526020016000206000828254610bb69190614413565b9250508190555081600160008573ffffffffffffffffffffffffffffffffffffffff1673ffffffffffffffffffffffffffffffffffffffff1681526020019081526020016000206000828254610c0c9190614447565b9250508190555081600260008673ffffffffffffffffffffffffffffffffffffffff1673ffffffffffffffffffffffffffffffffffffffff16815260200190815260200160002060003373ffffffffffffffffffffffffffffffffffffffff1673ffffffffffffffffffffffffffffffffffffffff1681526020019081526020016000206000828254610c9f9190614413565b925050819055508273ffffffffffffffffffffffffffffffffffffffff168473ffffffffffffffffffffffffffffffffffffffff167fc817d75deaa278e988c41cf549ef38fe195ab65e0e64cd67ba47f0d185690d5884600160008973ffffffffffffffffffffffffffffffffffffffff1673ffffffffffffffffffffffffffffffffffffffff16815260200190815260200160002054600160008973ffffffffffffffffffffffffffffffffffffffff1673ffffffffffffffffffffffffffffffffffffffff16815260200190815260200160002054604051610d859392919061447b565b60405180910390a3600190509392505050565b600c8181548110610da857600080fd5b90600052602060002090600202016000915090508060000160009054906101000a900473ffffffffffffffffffffffffffffffffffffffff16908060010154905082565b7f000000000000000000000000000000000000000000000000000000000000000073ffffffffffffffffffffffffffffffffffffffff163373ffffffffffffffffffffffffffffffffffffffff1614610e7a576040517f08c379a0000000000000000000000000000000000000000000000000000000008152600401610e71906144fe565b60405180910390fd5b60006004811115610e8e57610e8d6141fa565b5b600a600960008573ffffffffffffffffffffffffffffffffffffffff1673ffffffffffffffffffffffffffffffffffffffff1681526020019081526020016000205481548110610ee157610ee0614229565b5b90600052602060002001600081548110610efe57610efd614229565b5b90600052602060002090600402016002015414610f50576040517f08c379a0000000000000000000000000000000000000000000000000000000008152600401610f479061456a565b60405180910390fd5b600060405180608001604052808473ffffffffffffffffffffffffffffffffffffffff16815260200183815260200160016004811115610f9357610f926141fa565b5b81526020014281525090506000600960008573ffffffffffffffffffffffffffffffffffffffff1673ffffffffffffffffffffffffffffffffffffffff168152602001908152602001600020549050600a8181548110610ff657610ff5614229565b5b9060005260206000200182908060018154018082558091505060019003906000526020600020906004020160009091909190915060008201518160000160006101000a81548173ffffffffffffffffffffffffffffffffffffffff021916908373ffffffffffffffffffffffffffffffffffffffff160217905550602082015181600101556040820151816002015560608201518160030155505060006001600a83815481106110a9576110a8614229565b5b90600052602060002001805490506110c19190614413565b90507f8037f136c26fa76fb52b6c6b9afe3e7844af9a5a61d21f5ceb8c4d95d4fb6f09600a83815481106110f8576110f7614229565b5b90600052602060002001828154811061111457611113614229565b5b906000526020600020906004020160000160009054906101000a900473ffffffffffffffffffffffffffffffffffffffff16600a848154811061115a57611159614229565b5b90600052602060002001838154811061117657611175614229565b5b906000526020600020906004020160010154600a858154811061119c5761119b614229565b5b9060005260206000200184815481106111b8576111b7614229565b5b906000526020600020906004020160020154600a86815481106111de576111dd614229565b5b9060005260206000200185815481106111fa576111f9614229565b5b90600052602060002090600402016003015460405161121c94939291906141b5565b60405180910390a16001811461139457600a82815481106112405761123f614229565b5b90600052602060002001818154811061125c5761125b614229565b5b906000526020600020906004020160010154600a838154811061128257611281614229565b5b9060005260206000200160018154811061129f5761129e614229565b5b906000526020600020906004020160010160008282546112bf9190614447565b9250508190555042600a83815481106112db576112da614229565b5b906000526020600020016001815481106112f8576112f7614229565b5b906000526020600020906004020160030181905550600a828154811061132157611320614229565b5b9060005260206000200180548061133b5761133a61458a565b5b6001900381819060005260206000209060040201600080820160006101000a81549073ffffffffffffffffffffffffffffffffffffffff0219169055600182016000905560028201600090556003820160009055505090555b7f0741a520ce99882729e103ab767f5036a4d0cf5d975bc55047af9d86c174c2fa60006040516113c491906145fe565b60405180910390a15050505050565b601281565b6000810361141b576040517f08c379a000000000000000000000000000000000000000000000000000000000815260040161141290614665565b60405180910390fd5b61142433611bb7565b601260ff16600a61143591906147b8565b6101f46114429190614803565b8261144d9190614803565b111561148e576040517f08c379a000000000000000000000000000000000000000000000000000000000815260040161148590614891565b60405180910390fd5b6006544211156114d3576040517f08c379a00000000000000000000000000000000000000000000000000000000081526004016114ca906148fd565b60405180910390fd5b6000600960003373ffffffffffffffffffffffffffffffffffffffff1673ffffffffffffffffffffffffffffffffffffffff168152602001908152602001600020549050600060405180608001604052803373ffffffffffffffffffffffffffffffffffffffff1681526020018481526020016002600481111561155a576115596141fa565b5b8152602001428152509050600a828154811061157957611578614229565b5b9060005260206000200181908060018154018082558091505060019003906000526020600020906004020160009091909190915060008201518160000160006101000a81548173ffffffffffffffffffffffffffffffffffffffff021916908373ffffffffffffffffffffffffffffffffffffffff1602179055506020820151816001015560408201518160020155606082015181600301555050600060405180604001604052803373ffffffffffffffffffffffffffffffffffffffff168152602001858152509050600d81908060018154018082558091505060019003906000526020600020906002020160009091909190915060008201518160000160006101000a81548173ffffffffffffffffffffffffffffffffffffffff021916908373ffffffffffffffffffffffffffffffffffffffff160217905550602082015181600101555050600860008154809291906116d590614287565b919050555083600460008282546116ec9190614447565b925050819055506117257f000000000000000000000000000000000000000000000000000000000000000061172033611bb7565b61192d565b506117787f0000000000000000000000000000000000000000000000000000000000000000601260ff16600a61175b91906147b8565b6101f46117689190614803565b866117739190614803565b61059b565b507f66a846c2932c09a6c83bc18be37b41dc84de29ecf7f7cdadd4b9a39b1b3d1a9433856040516117aa929190613fb1565b60405180910390a150505050565b7f000000000000000000000000000000000000000000000000000000000000000073ffffffffffffffffffffffffffffffffffffffff163373ffffffffffffffffffffffffffffffffffffffff1614611846576040517f08c379a000000000000000000000000000000000000000000000000000000000815260040161183d90614969565b60405180910390fd5b6000429050610e10816118599190614447565b600681905550600060048190555060006003819055507f63d859dfe6122a9b44f82878adcca8b281f61490464164bb5df15c3450e3e08c816006546040516118a2929190614989565b60405180910390a150565b600e81815481106118bd57600080fd5b90600052602060002090600402016000915090508060000160009054906101000a900473ffffffffffffffffffffffffffffffffffffffff16908060010160009054906101000a900473ffffffffffffffffffffffffffffffffffffffff16908060020154908060030154905084565b600080600260003373ffffffffffffffffffffffffffffffffffffffff1673ffffffffffffffffffffffffffffffffffffffff16815260200190815260200160002060008573ffffffffffffffffffffffffffffffffffffffff1673ffffffffffffffffffffffffffffffffffffffff16815260200190815260200160002054905080831115611a3e576000600260003373ffffffffffffffffffffffffffffffffffffffff1673ffffffffffffffffffffffffffffffffffffffff16815260200190815260200160002060008673ffffffffffffffffffffffffffffffffffffffff1673ffffffffffffffffffffffffffffffffffffffff16815260200190815260200160002081905550611acb565b8281611a4a9190614413565b600260003373ffffffffffffffffffffffffffffffffffffffff1673ffffffffffffffffffffffffffffffffffffffff16815260200190815260200160002060008673ffffffffffffffffffffffffffffffffffffffff1673ffffffffffffffffffffffffffffffffffffffff168152602001908152602001600020819055505b8373ffffffffffffffffffffffffffffffffffffffff163373ffffffffffffffffffffffffffffffffffffffff167f8c5be1e5ebec7d5bd14f71427d1e84f3dd0314c0f7b2291e5b200ac8c7c3b925600260003373ffffffffffffffffffffffffffffffffffffffff1673ffffffffffffffffffffffffffffffffffffffff16815260200190815260200160002060008873ffffffffffffffffffffffffffffffffffffffff1673ffffffffffffffffffffffffffffffffffffffff16815260200190815260200160002054604051611ba49190613f16565b60405180910390a3600191505092915050565b6000600160008373ffffffffffffffffffffffffffffffffffffffff1673ffffffffffffffffffffffffffffffffffffffff168152602001908152602001600020549050919050565b6040518060400160405280600981526020017f4e524720546f6b656e000000000000000000000000000000000000000000000081525081565b60008073ffffffffffffffffffffffffffffffffffffffff168373ffffffffffffffffffffffffffffffffffffffff1603611ca9576040517f08c379a0000000000000000000000000000000000000000000000000000000008152600401611ca09061431b565b60405180910390fd5b600160003373ffffffffffffffffffffffffffffffffffffffff1673ffffffffffffffffffffffffffffffffffffffff16815260200190815260200160002054821115611d2b576040517f08c379a0000000000000000000000000000000000000000000000000000000008152600401611d2290614387565b60405180910390fd5b81600160003373ffffffffffffffffffffffffffffffffffffffff1673ffffffffffffffffffffffffffffffffffffffff1681526020019081526020016000206000828254611d7a9190614413565b9250508190555081600160008573ffffffffffffffffffffffffffffffffffffffff1673ffffffffffffffffffffffffffffffffffffffff1681526020019081526020016000206000828254611dd09190614447565b925050819055508273ffffffffffffffffffffffffffffffffffffffff163373ffffffffffffffffffffffffffffffffffffffff167fc817d75deaa278e988c41cf549ef38fe195ab65e0e64cd67ba47f0d185690d5884600160003373ffffffffffffffffffffffffffffffffffffffff1673ffffffffffffffffffffffffffffffffffffffff16815260200190815260200160002054600160008973ffffffffffffffffffffffffffffffffffffffff1673ffffffffffffffffffffffffffffffffffffffff16815260200190815260200160002054604051611eb69392919061447b565b60405180910390a36001905092915050565b4260068190555060006001905060008060045460035411156122cc576003546064600454611ef69190614803565b611f0091906149e1565b925060005b6007548110156122c657606484600c8381548110611f2657611f25614229565b5b906000526020600020906002020160010154611f429190614803565b611f4c91906149e1565b600c8281548110611f6057611f5f614229565b5b906000526020600020906002020160010181905550600060096000600c8481548110611f8f57611f8e614229565b5b906000526020600020906002020160000160009054906101000a900473ffffffffffffffffffffffffffffffffffffffff1673ffffffffffffffffffffffffffffffffffffffff1673ffffffffffffffffffffffffffffffffffffffff16815260200190815260200160002054905060006001600a838154811061201657612015614229565b5b906000526020600020018054905061202e9190614413565b9050606486600a848154811061204757612046614229565b5b90600052602060002001838154811061206357612062614229565b5b90600052602060002090600402016001015461207f9190614803565b61208991906149e1565b600a838154811061209d5761209c614229565b5b9060005260206000200182815481106120b9576120b8614229565b5b9060005260206000209060040201600101546120d59190614413565b600a83815481106120e9576120e8614229565b5b9060005260206000200160018154811061210657612105614229565b5b906000526020600020906004020160010160008282546121269190614447565b9250508190555042600a838154811061214257612141614229565b5b9060005260206000200160018154811061215f5761215e614229565b5b906000526020600020906004020160030181905550606486600a848154811061218b5761218a614229565b5b9060005260206000200183815481106121a7576121a6614229565b5b9060005260206000209060040201600101546121c39190614803565b6121cd91906149e1565b600a83815481106121e1576121e0614229565b5b9060005260206000200182815481106121fd576121fc614229565b5b90600052602060002090600402016001018190555060036004811115612226576122256141fa565b5b600a838154811061223a57612239614229565b5b90600052602060002001828154811061225657612255614229565b5b90600052602060002090600402016002018190555042600a83815481106122805761227f614229565b5b90600052602060002001828154811061229c5761229b614229565b5b906000526020600020906004020160030181905550505080806122be90614287565b915050611f05565b50612618565b60045460035410156126175760045460646003546122ea9190614803565b6122f491906149e1565b925060005b60085481101561261557606484600d838154811061231a57612319614229565b5b9060005260206000209060020201600101546123369190614803565b61234091906149e1565b600d828154811061235457612353614229565b5b906000526020600020906002020160010181905550600d818154811061237d5761237c614229565b5b906000526020600020906002020160010154600a60096000600d85815481106123a9576123a8614229565b5b906000526020600020906002020160000160009054906101000a900473ffffffffffffffffffffffffffffffffffffffff1673ffffffffffffffffffffffffffffffffffffffff1673ffffffffffffffffffffffffffffffffffffffff168152602001908152602001600020548154811061242757612426614229565b5b9060005260206000200160018154811061244457612443614229565b5b9060005260206000209060040201600101819055506003600481111561246d5761246c6141fa565b5b600a60096000600d858154811061248757612486614229565b5b906000526020600020906002020160000160009054906101000a900473ffffffffffffffffffffffffffffffffffffffff1673ffffffffffffffffffffffffffffffffffffffff1673ffffffffffffffffffffffffffffffffffffffff168152602001908152602001600020548154811061250557612504614229565b5b9060005260206000200160018154811061252257612521614229565b5b90600052602060002090600402016002018190555042600a60096000600d858154811061255257612551614229565b5b906000526020600020906002020160000160009054906101000a900473ffffffffffffffffffffffffffffffffffffffff1673ffffffffffffffffffffffffffffffffffffffff1673ffffffffffffffffffffffffffffffffffffffff16815260200190815260200160002054815481106125d0576125cf614229565b5b906000526020600020016001815481106125ed576125ec614229565b5b906000526020600020906004020160030181905550808061260d90614287565b9150506122f9565b505b5b6000600c838154811061262e5761262d614229565b5b90600052602060002090600202016001015490506000600d838154811061265857612657614229565b5b90600052602060002090600202016001015490505b808211156128c65780826126819190614413565b915060006040518060800160405280600c87815481106126a4576126a3614229565b5b906000526020600020906002020160000160009054906101000a900473ffffffffffffffffffffffffffffffffffffffff1673ffffffffffffffffffffffffffffffffffffffff168152602001600d868154811061270557612704614229565b5b906000526020600020906002020160000160009054906101000a900473ffffffffffffffffffffffffffffffffffffffff1673ffffffffffffffffffffffffffffffffffffffff168152602001838152602001428152509050600e81908060018154018082558091505060019003906000526020600020906004020160009091909190915060008201518160000160006101000a81548173ffffffffffffffffffffffffffffffffffffffff021916908373ffffffffffffffffffffffffffffffffffffffff16021790555060208201518160010160006101000a81548173ffffffffffffffffffffffffffffffffffffffff021916908373ffffffffffffffffffffffffffffffffffffffff160217905550604082015181600201556060820151816003015550507f989a384e7d6ac35c0f20d2bd63c813f15081bdebca21aef9b3cb7de56888331681600001518260200151836040015184606001516040516128739493929190614011565b60405180910390a1838061288690614287565b94505060085484106128985750612dab565b600d84815481106128ac576128ab614229565b5b906000526020600020906002020160010154915050612da4565b80821015612b1f5781816128da9190614413565b905060006040518060800160405280600c87815481106128fd576128fc614229565b5b906000526020600020906002020160000160009054906101000a900473ffffffffffffffffffffffffffffffffffffffff1673ffffffffffffffffffffffffffffffffffffffff168152602001600d868154811061295e5761295d614229565b5b906000526020600020906002020160000160009054906101000a900473ffffffffffffffffffffffffffffffffffffffff1673ffffffffffffffffffffffffffffffffffffffff168152602001848152602001428152509050600e81908060018154018082558091505060019003906000526020600020906004020160009091909190915060008201518160000160006101000a81548173ffffffffffffffffffffffffffffffffffffffff021916908373ffffffffffffffffffffffffffffffffffffffff16021790555060208201518160010160006101000a81548173ffffffffffffffffffffffffffffffffffffffff021916908373ffffffffffffffffffffffffffffffffffffffff160217905550604082015181600201556060820151816003015550507f989a384e7d6ac35c0f20d2bd63c813f15081bdebca21aef9b3cb7de5688833168160000151826020015183604001518460600151604051612acc9493929190614011565b60405180910390a18480612adf90614287565b9550506007548510612af15750612dab565b600c8581548110612b0557612b04614229565b5b906000526020600020906002020160010154925050612da3565b60006040518060800160405280600c8781548110612b4057612b3f614229565b5b906000526020600020906002020160000160009054906101000a900473ffffffffffffffffffffffffffffffffffffffff1673ffffffffffffffffffffffffffffffffffffffff168152602001600d8681548110612ba157612ba0614229565b5b906000526020600020906002020160000160009054906101000a900473ffffffffffffffffffffffffffffffffffffffff1673ffffffffffffffffffffffffffffffffffffffff168152602001848152602001428152509050600e81908060018154018082558091505060019003906000526020600020906004020160009091909190915060008201518160000160006101000a81548173ffffffffffffffffffffffffffffffffffffffff021916908373ffffffffffffffffffffffffffffffffffffffff16021790555060208201518160010160006101000a81548173ffffffffffffffffffffffffffffffffffffffff021916908373ffffffffffffffffffffffffffffffffffffffff160217905550604082015181600201556060820151816003015550507f989a384e7d6ac35c0f20d2bd63c813f15081bdebca21aef9b3cb7de5688833168160000151826020015183604001518460600151604051612d0f9493929190614011565b60405180910390a18480612d2290614287565b9550508380612d3090614287565b9450506007548510612d425750612dab565b6008548410612d515750612dab565b600c8581548110612d6557612d64614229565b5b9060005260206000209060020201600101549250600d8481548110612d8d57612d8c614229565b5b9060005260206000209060020201600101549150505b5b600161266d575b60005b60055481101561304a5760006001600a8381548110612dd057612dcf614229565b5b9060005260206000200180549050612de89190614413565b90505b6001811115613036576000600a8381548110612e0a57612e09614229565b5b906000526020600020018281548110612e2657612e25614229565b5b906000526020600020906004020160010154036130235760008190505b6001600a8481548110612e5957612e58614229565b5b9060005260206000200180549050612e719190614413565b811015612f9b57600a8381548110612e8c57612e8b614229565b5b90600052602060002001600182612ea39190614447565b81548110612eb457612eb3614229565b5b9060005260206000209060040201600a8481548110612ed657612ed5614229565b5b906000526020600020018281548110612ef257612ef1614229565b5b90600052602060002090600402016000820160009054906101000a900473ffffffffffffffffffffffffffffffffffffffff168160000160006101000a81548173ffffffffffffffffffffffffffffffffffffffff021916908373ffffffffffffffffffffffffffffffffffffffff1602179055506001820154816001015560028201548160020155600382015481600301559050508080612f9390614287565b915050612e43565b50600a8281548110612fb057612faf614229565b5b90600052602060002001805480612fca57612fc961458a565b5b6001900381819060005260206000209060040201600080820160006101000a81549073ffffffffffffffffffffffffffffffffffffffff0219169055600182016000905560028201600090556003820160009055505090555b808061302e90614a12565b915050612deb565b50808061304290614287565b915050612dae565b507f0741a520ce99882729e103ab767f5036a4d0cf5d975bc55047af9d86c174c2fa600060405161307b91906145fe565b60405180910390a15050505050565b6040518060400160405280600e81526020017f4e524720546f6b656e2076312e3000000000000000000000000000000000000081525081565b60055481565b600081600260003373ffffffffffffffffffffffffffffffffffffffff1673ffffffffffffffffffffffffffffffffffffffff16815260200190815260200160002060008573ffffffffffffffffffffffffffffffffffffffff1673ffffffffffffffffffffffffffffffffffffffff16815260200190815260200160002060008282546131579190614447565b925050819055508273ffffffffffffffffffffffffffffffffffffffff163373ffffffffffffffffffffffffffffffffffffffff167f8c5be1e5ebec7d5bd14f71427d1e84f3dd0314c0f7b2291e5b200ac8c7c3b925600260003373ffffffffffffffffffffffffffffffffffffffff1673ffffffffffffffffffffffffffffffffffffffff16815260200190815260200160002060008773ffffffffffffffffffffffffffffffffffffffff1673ffffffffffffffffffffffffffffffffffffffff168152602001908152602001600020546040516132379190613f16565b60405180910390a36001905092915050565b601260ff16600a61325a91906147b8565b6101f46132679190614803565b81565b6000600260008473ffffffffffffffffffffffffffffffffffffffff1673ffffffffffffffffffffffffffffffffffffffff16815260200190815260200160002060008373ffffffffffffffffffffffffffffffffffffffff1673ffffffffffffffffffffffffffffffffffffffff16815260200190815260200160002054905092915050565b7f000000000000000000000000000000000000000000000000000000000000000073ffffffffffffffffffffffffffffffffffffffff163373ffffffffffffffffffffffffffffffffffffffff161461337f576040517f08c379a000000000000000000000000000000000000000000000000000000000815260040161337690614a87565b60405180910390fd5b600081905060005b600e8054905081101561370557613459600e82815481106133ab576133aa614229565b5b906000526020600020906004020160010160009054906101000a900473ffffffffffffffffffffffffffffffffffffffff16600e83815481106133f1576133f0614229565b5b906000526020600020906004020160000160009054906101000a900473ffffffffffffffffffffffffffffffffffffffff1684600e858154811061343857613437614229565b5b9060005260206000209060040201600201546134549190614803565b6109b6565b50600e818154811061346e5761346d614229565b5b906000526020600020906004020160020154600a60096000600e858154811061349a57613499614229565b5b906000526020600020906004020160010160009054906101000a900473ffffffffffffffffffffffffffffffffffffffff1673ffffffffffffffffffffffffffffffffffffffff1673ffffffffffffffffffffffffffffffffffffffff168152602001908152602001600020548154811061351857613517614229565b5b9060005260206000200160018154811061353557613534614229565b5b90600052602060002090600402016001018190555060048081111561355d5761355c6141fa565b5b600a60096000600e858154811061357757613576614229565b5b906000526020600020906004020160010160009054906101000a900473ffffffffffffffffffffffffffffffffffffffff1673ffffffffffffffffffffffffffffffffffffffff1673ffffffffffffffffffffffffffffffffffffffff16815260200190815260200160002054815481106135f5576135f4614229565b5b9060005260206000200160018154811061361257613611614229565b5b90600052602060002090600402016002018190555042600a60096000600e858154811061364257613641614229565b5b906000526020600020906004020160010160009054906101000a900473ffffffffffffffffffffffffffffffffffffffff1673ffffffffffffffffffffffffffffffffffffffff1673ffffffffffffffffffffffffffffffffffffffff16815260200190815260200160002054815481106136c0576136bf614229565b5b906000526020600020016001815481106136dd576136dc614229565b5b90600052602060002090600402016003018190555080806136fd90614287565b915050613387565b50600e60006137149190613cdf565b7f0741a520ce99882729e103ab767f5036a4d0cf5d975bc55047af9d86c174c2fa600060405161374491906145fe565b60405180910390a15050565b60035481565b600a828154811061376657600080fd5b90600052602060002001818154811061377e57600080fd5b9060005260206000209060040201600091509150508060000160009054906101000a900473ffffffffffffffffffffffffffffffffffffffff16908060010154908060020154908060030154905084565b600d81815481106137df57600080fd5b90600052602060002090600202016000915090508060000160009054906101000a900473ffffffffffffffffffffffffffffffffffffffff16908060010154905082565b6040518060400160405280600381526020017f4e5247000000000000000000000000000000000000000000000000000000000081525081565b6000600960003373ffffffffffffffffffffffffffffffffffffffff1673ffffffffffffffffffffffffffffffffffffffff16815260200190815260200160002054905081600a82815481106138b5576138b4614229565b5b906000526020600020016001815481106138d2576138d1614229565b5b9060005260206000209060040201600101541015613925576040517f08c379a000000000000000000000000000000000000000000000000000000000815260040161391c90614af3565b60405180910390fd5b60065442111561396a576040517f08c379a000000000000000000000000000000000000000000000000000000000815260040161396190614b5f565b60405180910390fd5b600060405180608001604052803373ffffffffffffffffffffffffffffffffffffffff168152602001848152602001600260048111156139ad576139ac6141fa565b5b8152602001428152509050600a82815481106139cc576139cb614229565b5b9060005260206000200181908060018154018082558091505060019003906000526020600020906004020160009091909190915060008201518160000160006101000a81548173ffffffffffffffffffffffffffffffffffffffff021916908373ffffffffffffffffffffffffffffffffffffffff160217905550602082015181600101556040820151816002015560608201518160030155505082600a8381548110613a7c57613a7b614229565b5b90600052602060002001600181548110613a9957613a98614229565b5b90600052602060002090600402016001016000828254613ab99190614413565b92505081905550600060405180604001604052803373ffffffffffffffffffffffffffffffffffffffff168152602001858152509050600c81908060018154018082558091505060019003906000526020600020906002020160009091909190915060008201518160000160006101000a81548173ffffffffffffffffffffffffffffffffffffffff021916908373ffffffffffffffffffffffffffffffffffffffff16021790555060208201518160010155505060076000815480929190613b8190614287565b91905055508360036000828254613b989190614447565b925050819055507ffe101e991f405e750bf2c2020dffc0828f00df098e09cce61105f5ffa6e5ee8b3385604051613bd0929190613fb1565b60405180910390a150505050565b828054828255906000526020600020906004028101928215613caa5760005260206000209160040282015b82811115613ca95782826000820160009054906101000a900473ffffffffffffffffffffffffffffffffffffffff168160000160006101000a81548173ffffffffffffffffffffffffffffffffffffffff021916908373ffffffffffffffffffffffffffffffffffffffff160217905550600182015481600101556002820154816002015560038201548160030155505091600401919060040190613c09565b5b509050613cb79190613d03565b5090565b5080546000825560040290600052602060002090810190613cdc9190613d03565b50565b5080546000825560040290600052602060002090810190613d009190613d59565b50565b5b80821115613d5557600080820160006101000a81549073ffffffffffffffffffffffffffffffffffffffff021916905560018201600090556002820160009055600382016000905550600401613d04565b5090565b5b80821115613dca57600080820160006101000a81549073ffffffffffffffffffffffffffffffffffffffff02191690556001820160006101000a81549073ffffffffffffffffffffffffffffffffffffffff02191690556002820160009055600382016000905550600401613d5a565b5090565b600080fd5b600073ffffffffffffffffffffffffffffffffffffffff82169050919050565b6000613dfe82613dd3565b9050919050565b613e0e81613df3565b8114613e1957600080fd5b50565b600081359050613e2b81613e05565b92915050565b6000819050919050565b613e4481613e31565b8114613e4f57600080fd5b50565b600081359050613e6181613e3b565b92915050565b60008060408385031215613e7e57613e7d613dce565b5b6000613e8c85828601613e1c565b9250506020613e9d85828601613e52565b9150509250929050565b60008115159050919050565b613ebc81613ea7565b82525050565b6000602082019050613ed76000830184613eb3565b92915050565b613ee681613df3565b82525050565b6000602082019050613f016000830184613edd565b92915050565b613f1081613e31565b82525050565b6000602082019050613f2b6000830184613f07565b92915050565b600080600060608486031215613f4a57613f49613dce565b5b6000613f5886828701613e1c565b9350506020613f6986828701613e1c565b9250506040613f7a86828701613e52565b9150509250925092565b600060208284031215613f9a57613f99613dce565b5b6000613fa884828501613e52565b91505092915050565b6000604082019050613fc66000830185613edd565b613fd36020830184613f07565b9392505050565b600060ff82169050919050565b613ff081613fda565b82525050565b600060208201905061400b6000830184613fe7565b92915050565b60006080820190506140266000830187613edd565b6140336020830186613edd565b6140406040830185613f07565b61404d6060830184613f07565b95945050505050565b60006020828403121561406c5761406b613dce565b5b600061407a84828501613e1c565b91505092915050565b600081519050919050565b600082825260208201905092915050565b60005b838110156140bd5780820151818401526020810190506140a2565b60008484015250505050565b6000601f19601f8301169050919050565b60006140e582614083565b6140ef818561408e565b93506140ff81856020860161409f565b614108816140c9565b840191505092915050565b6000602082019050818103600083015261412d81846140da565b905092915050565b6000806040838503121561414c5761414b613dce565b5b600061415a85828601613e1c565b925050602061416b85828601613e1c565b9150509250929050565b6000806040838503121561418c5761418b613dce565b5b600061419a85828601613e52565b92505060206141ab85828601613e52565b9150509250929050565b60006080820190506141ca6000830187613edd565b6141d76020830186613f07565b6141e46040830185613f07565b6141f16060830184613f07565b95945050505050565b7f4e487b7100000000000000000000000000000000000000000000000000000000600052602160045260246000fd5b7f4e487b7100000000000000000000000000000000000000000000000000000000600052603260045260246000fd5b7f4e487b7100000000000000000000000000000000000000000000000000000000600052601160045260246000fd5b600061429282613e31565b91507fffffffffffffffffffffffffffffffffffffffffffffffffffffffffffffffff82036142c4576142c3614258565b5b600182019050919050565b7f496e76616c696420616464726573730000000000000000000000000000000000600082015250565b6000614305600f8361408e565b9150614310826142cf565b602082019050919050565b60006020820190508181036000830152614334816142f8565b9050919050565b7f496e73756666696369656e742062616c616e6365000000000000000000000000600082015250565b600061437160148361408e565b915061437c8261433b565b602082019050919050565b600060208201905081810360008301526143a081614364565b9050919050565b7f496e73756666696369656e7420616c6c6f77616e636500000000000000000000600082015250565b60006143dd60168361408e565b91506143e8826143a7565b602082019050919050565b6000602082019050818103600083015261440c816143d0565b9050919050565b600061441e82613e31565b915061442983613e31565b925082820390508181111561444157614440614258565b5b92915050565b600061445282613e31565b915061445d83613e31565b925082820190508082111561447557614474614258565b5b92915050565b60006060820190506144906000830186613f07565b61449d6020830185613f07565b6144aa6040830184613f07565b949350505050565b7f4f6e6c792044534f2063616e20696e6a65637420656e65726779000000000000600082015250565b60006144e8601a8361408e565b91506144f3826144b2565b602082019050919050565b60006020820190508181036000830152614517816144db565b9050919050565b7f456e65726779206973206e6f7420726567697374657265640000000000000000600082015250565b600061455460188361408e565b915061455f8261451e565b602082019050919050565b6000602082019050818103600083015261458381614547565b9050919050565b7f4e487b7100000000000000000000000000000000000000000000000000000000600052603160045260246000fd5b6000819050919050565b6000819050919050565b60006145e86145e36145de846145b9565b6145c3565b613e31565b9050919050565b6145f8816145cd565b82525050565b600060208201905061461360008301846145ef565b92915050565b7f416d6f756e742063616e6e6f74206265207a65726f0000000000000000000000600082015250565b600061464f60158361408e565b915061465a82614619565b602082019050919050565b6000602082019050818103600083015261467e81614642565b9050919050565b60008160011c9050919050565b6000808291508390505b60018511156146dc578086048111156146b8576146b7614258565b5b60018516156146c75780820291505b80810290506146d585614685565b945061469c565b94509492505050565b6000826146f557600190506147b1565b8161470357600090506147b1565b8160018114614719576002811461472357614752565b60019150506147b1565b60ff84111561473557614734614258565b5b8360020a91508482111561474c5761474b614258565b5b506147b1565b5060208310610133831016604e8410600b84101617156147875782820a90508381111561478257614781614258565b5b6147b1565b6147948484846001614692565b925090508184048111156147ab576147aa614258565b5b81810290505b9392505050565b60006147c382613e31565b91506147ce83613e31565b92506147fb7fffffffffffffffffffffffffffffffffffffffffffffffffffffffffffffffff84846146e5565b905092915050565b600061480e82613e31565b915061481983613e31565b925082820261482781613e31565b9150828204841483151761483e5761483d614258565b5b5092915050565b7f4e6f7420656e6f75676820746f6b656e73000000000000000000000000000000600082015250565b600061487b60118361408e565b915061488682614845565b602082019050919050565b600060208201905081810360008301526148aa8161486e565b9050919050565b7f526f756e64206973206f76657200000000000000000000000000000000000000600082015250565b60006148e7600d8361408e565b91506148f2826148b1565b602082019050919050565b60006020820190508181036000830152614916816148da565b9050919050565b7f4f6e6c792044534f2063616e2073746172742074686520726f756e6400000000600082015250565b6000614953601c8361408e565b915061495e8261491d565b602082019050919050565b6000602082019050818103600083015261498281614946565b9050919050565b600060408201905061499e6000830185613f07565b6149ab6020830184613f07565b9392505050565b7f4e487b7100000000000000000000000000000000000000000000000000000000600052601260045260246000fd5b60006149ec82613e31565b91506149f783613e31565b925082614a0757614a066149b2565b5b828204905092915050565b6000614a1d82613e31565b915060008203614a3057614a2f614258565b5b600182039050919050565b7f4f6e6c792044534f2063616e2074726164650000000000000000000000000000600082015250565b6000614a7160128361408e565b9150614a7c82614a3b565b602082019050919050565b60006020820190508181036000830152614aa081614a64565b9050919050565b7f4e6f7420656e6f75676820656e65726779000000000000000000000000000000600082015250565b6000614add60118361408e565b9150614ae882614aa7565b602082019050919050565b60006020820190508181036000830152614b0c81614ad0565b9050919050565b7f4e6f7420696e20726f756e642074696d65000000000000000000000000000000600082015250565b6000614b4960118361408e565b9150614b5482614b13565b602082019050919050565b60006020820190508181036000830152614b7881614b3c565b905091905056fea264697066735822122042361ab313f4706ede56b197afb887625422ae6c04edd0686ceef531deaa54f464736f6c63430008120033",
  "devdoc": {
    "kind": "dev",
    "methods": {},
    "version": 1
  },
  "userdoc": {
    "kind": "user",
    "methods": {},
    "version": 1
  },
  "storageLayout": {
    "storage": [
      {
        "astId": 26,
        "contract": "contracts/EnergyMarket.sol:EnergyMarket",
        "label": "_totalSupply",
        "offset": 0,
        "slot": "0",
        "type": "t_uint256"
      },
      {
        "astId": 52,
        "contract": "contracts/EnergyMarket.sol:EnergyMarket",
        "label": "balances",
        "offset": 0,
        "slot": "1",
        "type": "t_mapping(t_address,t_uint256)"
      },
      {
        "astId": 58,
        "contract": "contracts/EnergyMarket.sol:EnergyMarket",
        "label": "allowed",
        "offset": 0,
        "slot": "2",
        "type": "t_mapping(t_address,t_mapping(t_address,t_uint256))"
      },
      {
        "astId": 398,
        "contract": "contracts/EnergyMarket.sol:EnergyMarket",
        "label": "totalEnergySupplied",
        "offset": 0,
        "slot": "3",
        "type": "t_uint256"
      },
      {
        "astId": 400,
        "contract": "contracts/EnergyMarket.sol:EnergyMarket",
        "label": "totalEnergyDemanded",
        "offset": 0,
        "slot": "4",
        "type": "t_uint256"
      },
      {
        "astId": 402,
        "contract": "contracts/EnergyMarket.sol:EnergyMarket",
        "label": "totalUsers",
        "offset": 0,
        "slot": "5",
        "type": "t_uint256"
      },
      {
        "astId": 404,
        "contract": "contracts/EnergyMarket.sol:EnergyMarket",
        "label": "etime",
        "offset": 0,
        "slot": "6",
        "type": "t_uint256"
      },
      {
        "astId": 406,
        "contract": "contracts/EnergyMarket.sol:EnergyMarket",
        "label": "supplyIndex",
        "offset": 0,
        "slot": "7",
        "type": "t_uint256"
      },
      {
        "astId": 408,
        "contract": "contracts/EnergyMarket.sol:EnergyMarket",
        "label": "demandIndex",
        "offset": 0,
        "slot": "8",
        "type": "t_uint256"
      },
      {
        "astId": 457,
        "contract": "contracts/EnergyMarket.sol:EnergyMarket",
        "label": "addrIndex",
        "offset": 0,
        "slot": "9",
        "type": "t_mapping(t_address,t_uint256)"
      },
      {
        "astId": 462,
        "contract": "contracts/EnergyMarket.sol:EnergyMarket",
        "label": "energys",
        "offset": 0,
        "slot": "10",
        "type": "t_array(t_array(t_struct(EnergyOwnership)434_storage)dyn_storage)dyn_storage"
      },
      {
        "astId": 466,
        "contract": "contracts/EnergyMarket.sol:EnergyMarket",
        "label": "energy",
        "offset": 0,
        "slot": "11",
        "type": "t_array(t_struct(EnergyOwnership)434_storage)dyn_storage"
      },
      {
        "astId": 470,
        "contract": "contracts/EnergyMarket.sol:EnergyMarket",
        "label": "supplies",
        "offset": 0,
        "slot": "12",
        "type": "t_array(t_struct(Supply)439_storage)dyn_storage"
      },
      {
        "astId": 474,
        "contract": "contracts/EnergyMarket.sol:EnergyMarket",
        "label": "demands",
        "offset": 0,
        "slot": "13",
        "type": "t_array(t_struct(Demand)444_storage)dyn_storage"
      },
      {
        "astId": 478,
        "contract": "contracts/EnergyMarket.sol:EnergyMarket",
        "label": "matches",
        "offset": 0,
        "slot": "14",
        "type": "t_array(t_struct(EnergyMatched)453_storage)dyn_storage"
      }
    ],
    "types": {
      "t_address": {
        "encoding": "inplace",
        "label": "address",
        "numberOfBytes": "20"
      },
      "t_array(t_array(t_struct(EnergyOwnership)434_storage)dyn_storage)dyn_storage": {
        "base": "t_array(t_struct(EnergyOwnership)434_storage)dyn_storage",
        "encoding": "dynamic_array",
        "label": "struct EnergyMarket.EnergyOwnership[][]",
        "numberOfBytes": "32"
      },
      "t_array(t_struct(Demand)444_storage)dyn_storage": {
        "base": "t_struct(Demand)444_storage",
        "encoding": "dynamic_array",
        "label": "struct EnergyMarket.Demand[]",
        "numberOfBytes": "32"
      },
      "t_array(t_struct(EnergyMatched)453_storage)dyn_storage": {
        "base": "t_struct(EnergyMatched)453_storage",
        "encoding": "dynamic_array",
        "label": "struct EnergyMarket.EnergyMatched[]",
        "numberOfBytes": "32"
      },
      "t_array(t_struct(EnergyOwnership)434_storage)dyn_storage": {
        "base": "t_struct(EnergyOwnership)434_storage",
        "encoding": "dynamic_array",
        "label": "struct EnergyMarket.EnergyOwnership[]",
        "numberOfBytes": "32"
      },
      "t_array(t_struct(Supply)439_storage)dyn_storage": {
        "base": "t_struct(Supply)439_storage",
        "encoding": "dynamic_array",
        "label": "struct EnergyMarket.Supply[]",
        "numberOfBytes": "32"
      },
      "t_mapping(t_address,t_mapping(t_address,t_uint256))": {
        "encoding": "mapping",
        "key": "t_address",
        "label": "mapping(address => mapping(address => uint256))",
        "numberOfBytes": "32",
        "value": "t_mapping(t_address,t_uint256)"
      },
      "t_mapping(t_address,t_uint256)": {
        "encoding": "mapping",
        "key": "t_address",
        "label": "mapping(address => uint256)",
        "numberOfBytes": "32",
        "value": "t_uint256"
      },
      "t_struct(Demand)444_storage": {
        "encoding": "inplace",
        "label": "struct EnergyMarket.Demand",
        "members": [
          {
            "astId": 441,
            "contract": "contracts/EnergyMarket.sol:EnergyMarket",
            "label": "addrConsumer",
            "offset": 0,
            "slot": "0",
            "type": "t_address"
          },
          {
            "astId": 443,
            "contract": "contracts/EnergyMarket.sol:EnergyMarket",
            "label": "energyDemanded",
            "offset": 0,
            "slot": "1",
            "type": "t_uint256"
          }
        ],
        "numberOfBytes": "64"
      },
      "t_struct(EnergyMatched)453_storage": {
        "encoding": "inplace",
        "label": "struct EnergyMarket.EnergyMatched",
        "members": [
          {
            "astId": 446,
            "contract": "contracts/EnergyMarket.sol:EnergyMarket",
            "label": "addrProsumer",
            "offset": 0,
            "slot": "0",
            "type": "t_address"
          },
          {
            "astId": 448,
            "contract": "contracts/EnergyMarket.sol:EnergyMarket",
            "label": "addrConsumer",
            "offset": 0,
            "slot": "1",
            "type": "t_address"
          },
          {
            "astId": 450,
            "contract": "contracts/EnergyMarket.sol:EnergyMarket",
            "label": "energyAmount",
            "offset": 0,
            "slot": "2",
            "type": "t_uint256"
          },
          {
            "astId": 452,
            "contract": "contracts/EnergyMarket.sol:EnergyMarket",
            "label": "timestamp",
            "offset": 0,
            "slot": "3",
            "type": "t_uint256"
          }
        ],
        "numberOfBytes": "128"
      },
      "t_struct(EnergyOwnership)434_storage": {
        "encoding": "inplace",
        "label": "struct EnergyMarket.EnergyOwnership",
        "members": [
          {
            "astId": 427,
            "contract": "contracts/EnergyMarket.sol:EnergyMarket",
            "label": "addrOwner",
            "offset": 0,
            "slot": "0",
            "type": "t_address"
          },
          {
            "astId": 429,
            "contract": "contracts/EnergyMarket.sol:EnergyMarket",
            "label": "energyAmount",
            "offset": 0,
            "slot": "1",
            "type": "t_uint256"
          },
          {
            "astId": 431,
            "contract": "contracts/EnergyMarket.sol:EnergyMarket",
            "label": "energyState",
            "offset": 0,
            "slot": "2",
            "type": "t_uint256"
          },
          {
            "astId": 433,
            "contract": "contracts/EnergyMarket.sol:EnergyMarket",
            "label": "timestamp",
            "offset": 0,
            "slot": "3",
            "type": "t_uint256"
          }
        ],
        "numberOfBytes": "128"
      },
      "t_struct(Supply)439_storage": {
        "encoding": "inplace",
        "label": "struct EnergyMarket.Supply",
        "members": [
          {
            "astId": 436,
            "contract": "contracts/EnergyMarket.sol:EnergyMarket",
            "label": "addrProsumer",
            "offset": 0,
            "slot": "0",
            "type": "t_address"
          },
          {
            "astId": 438,
            "contract": "contracts/EnergyMarket.sol:EnergyMarket",
            "label": "energySupplied",
            "offset": 0,
            "slot": "1",
            "type": "t_uint256"
          }
        ],
        "numberOfBytes": "64"
      },
      "t_uint256": {
        "encoding": "inplace",
        "label": "uint256",
        "numberOfBytes": "32"
      }
    }
  }
}