{
  "_format": "hh-sol-artifact-1",
  "contractName": "EnergyMarket",
  "sourceName": "contracts/EnergyMarket.sol",
  "abi": [
    {
      "inputs": [],
      "stateMutability": "nonpayable",
      "type": "constructor"
    },
    {
      "inputs": [
        {
          "internalType": "uint256",
          "name": "allowance",
          "type": "uint256"
        },
        {
          "internalType": "uint256",
          "name": "required",
          "type": "uint256"
        }
      ],
      "name": "EnergyMarket__InsufficientAllowance",
      "type": "error"
    },
    {
      "inputs": [
        {
          "internalType": "uint256",
          "name": "balance",
          "type": "uint256"
        },
        {
          "internalType": "uint256",
          "name": "required",
          "type": "uint256"
        }
      ],
      "name": "EnergyMarket__InsufficientBalance",
      "type": "error"
    },
    {
      "inputs": [
        {
          "internalType": "uint256",
          "name": "energyAmount",
          "type": "uint256"
        },
        {
          "internalType": "uint256",
          "name": "required",
          "type": "uint256"
        }
      ],
      "name": "EnergyMarket__InsufficientEnergyInjected",
      "type": "error"
    },
    {
      "inputs": [
        {
          "internalType": "address",
          "name": "addr",
          "type": "address"
        }
      ],
      "name": "EnergyMarket__InvalidAddress",
      "type": "error"
    },
    {
      "inputs": [
        {
          "internalType": "address",
          "name": "addr",
          "type": "address"
        }
      ],
      "name": "EnergyMarket__NotDSO",
      "type": "error"
    },
    {
      "inputs": [
        {
          "internalType": "uint256",
          "name": "currentTime",
          "type": "uint256"
        },
        {
          "internalType": "uint256",
          "name": "startTime",
          "type": "uint256"
        },
        {
          "internalType": "uint256",
          "name": "endTime",
          "type": "uint256"
        }
      ],
      "name": "EnergyMarket__OutsideRound",
      "type": "error"
    },
    {
      "inputs": [],
      "name": "EnergyMarket__ZeroEnergyAmount",
      "type": "error"
    },
    {
      "anonymous": false,
      "inputs": [
        {
          "indexed": true,
          "internalType": "address",
          "name": "_owner",
          "type": "address"
        },
        {
          "indexed": true,
          "internalType": "address",
          "name": "_spender",
          "type": "address"
        },
        {
          "indexed": false,
          "internalType": "uint256",
          "name": "_value",
          "type": "uint256"
        }
      ],
      "name": "Approval",
      "type": "event"
    },
    {
      "anonymous": false,
      "inputs": [
        {
          "indexed": false,
          "internalType": "address",
          "name": "addr",
          "type": "address"
        },
        {
          "indexed": false,
          "internalType": "uint256",
          "name": "amount",
          "type": "uint256"
        }
      ],
      "name": "BuyRequestCheck",
      "type": "event"
    },
    {
      "anonymous": false,
      "inputs": [
        {
          "indexed": false,
          "internalType": "address",
          "name": "addrOwner",
          "type": "address"
        },
        {
          "indexed": false,
          "internalType": "uint256",
          "name": "energyAmount",
          "type": "uint256"
        },
        {
          "indexed": false,
          "internalType": "uint256",
          "name": "energyState",
          "type": "uint256"
        },
        {
          "indexed": false,
          "internalType": "uint256",
          "name": "timestamp",
          "type": "uint256"
        }
      ],
      "name": "EnergyCheck",
      "type": "event"
    },
    {
      "anonymous": false,
      "inputs": [
        {
          "indexed": false,
          "internalType": "address",
          "name": "addrProsumer",
          "type": "address"
        },
        {
          "indexed": false,
          "internalType": "address",
          "name": "addrConsumer",
          "type": "address"
        },
        {
          "indexed": false,
          "internalType": "uint256",
          "name": "value",
          "type": "uint256"
        },
        {
          "indexed": false,
          "internalType": "uint256",
          "name": "timestamp",
          "type": "uint256"
        }
      ],
      "name": "EnergyMatchedCheck",
      "type": "event"
    },
    {
      "anonymous": false,
      "inputs": [
        {
          "indexed": false,
          "internalType": "uint256",
          "name": "gen",
          "type": "uint256"
        }
      ],
      "name": "Gen",
      "type": "event"
    },
    {
      "anonymous": false,
      "inputs": [
        {
          "indexed": false,
          "internalType": "uint256",
          "name": "startTime",
          "type": "uint256"
        },
        {
          "indexed": false,
          "internalType": "uint256",
          "name": "endTime",
          "type": "uint256"
        }
      ],
      "name": "RoundStart",
      "type": "event"
    },
    {
      "anonymous": false,
      "inputs": [
        {
          "indexed": false,
          "internalType": "address",
          "name": "addr",
          "type": "address"
        },
        {
          "indexed": false,
          "internalType": "uint256",
          "name": "amount",
          "type": "uint256"
        }
      ],
      "name": "SellRequestCheck",
      "type": "event"
    },
    {
      "anonymous": false,
      "inputs": [
        {
          "indexed": true,
          "internalType": "address",
          "name": "_from",
          "type": "address"
        },
        {
          "indexed": true,
          "internalType": "address",
          "name": "_to",
          "type": "address"
        },
        {
          "indexed": false,
          "internalType": "uint256",
          "name": "_value",
          "type": "uint256"
        }
      ],
      "name": "Transfer",
      "type": "event"
    },
    {
      "stateMutability": "payable",
      "type": "fallback"
    },
    {
      "inputs": [],
      "name": "DECIMALS",
      "outputs": [
        {
          "internalType": "uint8",
          "name": "",
          "type": "uint8"
        }
      ],
      "stateMutability": "view",
      "type": "function"
    },
    {
      "inputs": [],
      "name": "MAX_ENERGYPRICE",
      "outputs": [
        {
          "internalType": "uint256",
          "name": "",
          "type": "uint256"
        }
      ],
      "stateMutability": "view",
      "type": "function"
    },
    {
      "inputs": [],
      "name": "NAME",
      "outputs": [
        {
          "internalType": "string",
          "name": "",
          "type": "string"
        }
      ],
      "stateMutability": "view",
      "type": "function"
    },
    {
      "inputs": [],
      "name": "STANDARD",
      "outputs": [
        {
          "internalType": "string",
          "name": "",
          "type": "string"
        }
      ],
      "stateMutability": "view",
      "type": "function"
    },
    {
      "inputs": [],
      "name": "SYMBOL",
      "outputs": [
        {
          "internalType": "string",
          "name": "",
          "type": "string"
        }
      ],
      "stateMutability": "view",
      "type": "function"
    },
    {
      "inputs": [
        {
          "internalType": "address",
          "name": "_owner",
          "type": "address"
        },
        {
          "internalType": "address",
          "name": "_spender",
          "type": "address"
        }
      ],
      "name": "allowance",
      "outputs": [
        {
          "internalType": "uint256",
          "name": "remaining",
          "type": "uint256"
        }
      ],
      "stateMutability": "view",
      "type": "function"
    },
    {
      "inputs": [
        {
          "internalType": "address",
          "name": "_spender",
          "type": "address"
        },
        {
          "internalType": "uint256",
          "name": "_value",
          "type": "uint256"
        }
      ],
      "name": "approve",
      "outputs": [
        {
          "internalType": "bool",
          "name": "success",
          "type": "bool"
        }
      ],
      "stateMutability": "nonpayable",
      "type": "function"
    },
    {
      "inputs": [
        {
          "internalType": "address",
          "name": "_owner",
          "type": "address"
        }
      ],
      "name": "balanceOf",
      "outputs": [
        {
          "internalType": "uint256",
          "name": "balance",
          "type": "uint256"
        }
      ],
      "stateMutability": "view",
      "type": "function"
    },
    {
      "inputs": [
        {
          "internalType": "address",
          "name": "_from",
          "type": "address"
        },
        {
          "internalType": "uint256",
          "name": "_value",
          "type": "uint256"
        }
      ],
      "name": "burn",
      "outputs": [
        {
          "internalType": "bool",
          "name": "success",
          "type": "bool"
        }
      ],
      "stateMutability": "nonpayable",
      "type": "function"
    },
    {
      "inputs": [
        {
          "internalType": "address",
          "name": "_spender",
          "type": "address"
        },
        {
          "internalType": "uint256",
          "name": "_subtractedValue",
          "type": "uint256"
        }
      ],
      "name": "decreaseAllowance",
      "outputs": [
        {
          "internalType": "bool",
          "name": "success",
          "type": "bool"
        }
      ],
      "stateMutability": "nonpayable",
      "type": "function"
    },
    {
      "inputs": [],
      "name": "getDSO",
      "outputs": [
        {
          "internalType": "address",
          "name": "",
          "type": "address"
        }
      ],
      "stateMutability": "view",
      "type": "function"
    },
    {
      "inputs": [],
      "name": "getDemandIndex",
      "outputs": [
        {
          "internalType": "uint256",
          "name": "",
          "type": "uint256"
        }
      ],
      "stateMutability": "view",
      "type": "function"
    },
    {
      "inputs": [
        {
          "internalType": "uint256",
          "name": "_index",
          "type": "uint256"
        }
      ],
      "name": "getDemandInfo",
      "outputs": [
        {
          "components": [
            {
              "internalType": "address",
              "name": "addrConsumer",
              "type": "address"
            },
            {
              "internalType": "uint256",
              "name": "energyDemanded",
              "type": "uint256"
            }
          ],
          "internalType": "struct EnergyMarket.Demand",
          "name": "",
          "type": "tuple"
        }
      ],
      "stateMutability": "view",
      "type": "function"
    },
    {
      "inputs": [],
      "name": "getEndTime",
      "outputs": [
        {
          "internalType": "uint256",
          "name": "",
          "type": "uint256"
        }
      ],
      "stateMutability": "view",
      "type": "function"
    },
    {
      "inputs": [
        {
          "internalType": "address",
          "name": "_addr",
          "type": "address"
        },
        {
          "internalType": "uint256",
          "name": "_index",
          "type": "uint256"
        }
      ],
      "name": "getEnergyOwnershipInfo",
      "outputs": [
        {
          "components": [
            {
              "internalType": "address",
              "name": "addrOwner",
              "type": "address"
            },
            {
              "internalType": "uint256",
              "name": "energyAmount",
              "type": "uint256"
            },
            {
              "internalType": "uint256",
              "name": "energyState",
              "type": "uint256"
            },
            {
              "internalType": "uint256",
              "name": "timestamp",
              "type": "uint256"
            }
          ],
          "internalType": "struct EnergyMarket.EnergyOwnership",
          "name": "",
          "type": "tuple"
        }
      ],
      "stateMutability": "view",
      "type": "function"
    },
    {
      "inputs": [
        {
          "internalType": "address",
          "name": "_addr",
          "type": "address"
        }
      ],
      "name": "getIndexFromAddress",
      "outputs": [
        {
          "internalType": "uint256",
          "name": "",
          "type": "uint256"
        }
      ],
      "stateMutability": "view",
      "type": "function"
    },
    {
      "inputs": [
        {
          "internalType": "uint256",
          "name": "_index",
          "type": "uint256"
        }
      ],
      "name": "getMatchInfo",
      "outputs": [
        {
          "components": [
            {
              "internalType": "address",
              "name": "addrProsumer",
              "type": "address"
            },
            {
              "internalType": "address",
              "name": "addrConsumer",
              "type": "address"
            },
            {
              "internalType": "uint256",
              "name": "energyAmount",
              "type": "uint256"
            },
            {
              "internalType": "uint256",
              "name": "timestamp",
              "type": "uint256"
            }
          ],
          "internalType": "struct EnergyMarket.EnergyMatched",
          "name": "",
          "type": "tuple"
        }
      ],
      "stateMutability": "view",
      "type": "function"
    },
    {
      "inputs": [],
      "name": "getStartTime",
      "outputs": [
        {
          "internalType": "uint256",
          "name": "",
          "type": "uint256"
        }
      ],
      "stateMutability": "view",
      "type": "function"
    },
    {
      "inputs": [],
      "name": "getSupplyIndex",
      "outputs": [
        {
          "internalType": "uint256",
          "name": "",
          "type": "uint256"
        }
      ],
      "stateMutability": "view",
      "type": "function"
    },
    {
      "inputs": [
        {
          "internalType": "uint256",
          "name": "_index",
          "type": "uint256"
        }
      ],
      "name": "getSupplyInfo",
      "outputs": [
        {
          "components": [
            {
              "internalType": "address",
              "name": "addrProsumer",
              "type": "address"
            },
            {
              "internalType": "uint256",
              "name": "energySupplied",
              "type": "uint256"
            }
          ],
          "internalType": "struct EnergyMarket.Supply",
          "name": "",
          "type": "tuple"
        }
      ],
      "stateMutability": "view",
      "type": "function"
    },
    {
      "inputs": [],
      "name": "getTotalEnergyDemanded",
      "outputs": [
        {
          "internalType": "uint256",
          "name": "",
          "type": "uint256"
        }
      ],
      "stateMutability": "view",
      "type": "function"
    },
    {
      "inputs": [],
      "name": "getTotalEnergySupplied",
      "outputs": [
        {
          "internalType": "uint256",
          "name": "",
          "type": "uint256"
        }
      ],
      "stateMutability": "view",
      "type": "function"
    },
    {
      "inputs": [],
      "name": "getTotalUsers",
      "outputs": [
        {
          "internalType": "uint256",
          "name": "",
          "type": "uint256"
        }
      ],
      "stateMutability": "view",
      "type": "function"
    },
    {
      "inputs": [
        {
          "internalType": "address",
          "name": "_spender",
          "type": "address"
        },
        {
          "internalType": "uint256",
          "name": "_addedValue",
          "type": "uint256"
        }
      ],
      "name": "increaseAllowance",
      "outputs": [
        {
          "internalType": "bool",
          "name": "success",
          "type": "bool"
        }
      ],
      "stateMutability": "nonpayable",
      "type": "function"
    },
    {
      "inputs": [
        {
          "internalType": "address",
          "name": "_owner",
          "type": "address"
        },
        {
          "internalType": "uint256",
          "name": "_amount",
          "type": "uint256"
        }
      ],
      "name": "inject",
      "outputs": [],
      "stateMutability": "nonpayable",
      "type": "function"
    },
    {
      "inputs": [],
      "name": "matching",
      "outputs": [],
      "stateMutability": "nonpayable",
      "type": "function"
    },
    {
      "inputs": [
        {
          "internalType": "address",
          "name": "_to",
          "type": "address"
        },
        {
          "internalType": "uint256",
          "name": "_value",
          "type": "uint256"
        }
      ],
      "name": "mint",
      "outputs": [
        {
          "internalType": "bool",
          "name": "success",
          "type": "bool"
        }
      ],
      "stateMutability": "nonpayable",
      "type": "function"
    },
    {
      "inputs": [],
      "name": "register",
      "outputs": [],
      "stateMutability": "nonpayable",
      "type": "function"
    },
    {
      "inputs": [
        {
          "internalType": "uint256",
          "name": "_amount",
          "type": "uint256"
        }
      ],
      "name": "requestBuy",
      "outputs": [],
      "stateMutability": "nonpayable",
      "type": "function"
    },
    {
      "inputs": [
        {
          "internalType": "uint256",
          "name": "_amount",
          "type": "uint256"
        }
      ],
      "name": "requestSell",
      "outputs": [],
      "stateMutability": "nonpayable",
      "type": "function"
    },
    {
      "inputs": [],
      "name": "roundStart",
      "outputs": [],
      "stateMutability": "nonpayable",
      "type": "function"
    },
    {
      "inputs": [],
      "name": "totalSupply",
      "outputs": [
        {
          "internalType": "uint256",
          "name": "",
          "type": "uint256"
        }
      ],
      "stateMutability": "view",
      "type": "function"
    },
    {
      "inputs": [
        {
          "internalType": "uint256",
          "name": "_price",
          "type": "uint256"
        }
      ],
      "name": "trade",
      "outputs": [],
      "stateMutability": "nonpayable",
      "type": "function"
    },
    {
      "inputs": [
        {
          "internalType": "address",
          "name": "_to",
          "type": "address"
        },
        {
          "internalType": "uint256",
          "name": "_value",
          "type": "uint256"
        }
      ],
      "name": "transfer",
      "outputs": [
        {
          "internalType": "bool",
          "name": "success",
          "type": "bool"
        }
      ],
      "stateMutability": "nonpayable",
      "type": "function"
    },
    {
      "inputs": [
        {
          "internalType": "address",
          "name": "_from",
          "type": "address"
        },
        {
          "internalType": "address",
          "name": "_to",
          "type": "address"
        },
        {
          "internalType": "uint256",
          "name": "_value",
          "type": "uint256"
        }
      ],
      "name": "transferFrom",
      "outputs": [
        {
          "internalType": "bool",
          "name": "success",
          "type": "bool"
        }
      ],
      "stateMutability": "nonpayable",
      "type": "function"
    },
    {
      "stateMutability": "payable",
      "type": "receive"
    }
  ],
  "bytecode": "0x60a06040523480156200001157600080fd5b503373ffffffffffffffffffffffffffffffffffffffff1660808173ffffffffffffffffffffffffffffffffffffffff1681525050601260ff16600a620000599190620002f2565b6298968062000069919062000343565b600081905550601260ff16600a620000829190620002f2565b6298968062000092919062000343565b600160003373ffffffffffffffffffffffffffffffffffffffff1673ffffffffffffffffffffffffffffffffffffffff168152602001908152602001600020819055503373ffffffffffffffffffffffffffffffffffffffff16600073ffffffffffffffffffffffffffffffffffffffff167fddf252ad1be2c89b69c2b068fc378daa952ba7f163c4a11628f55a4df523b3ef601260ff16600a620001389190620002f2565b6298968062000148919062000343565b6040516200015791906200039f565b60405180910390a3620003bc565b7f4e487b7100000000000000000000000000000000000000000000000000000000600052601160045260246000fd5b60008160011c9050919050565b6000808291508390505b6001851115620001f357808604811115620001cb57620001ca62000165565b5b6001851615620001db5780820291505b8081029050620001eb8562000194565b9450620001ab565b94509492505050565b6000826200020e5760019050620002e1565b816200021e5760009050620002e1565b8160018114620002375760028114620002425762000278565b6001915050620002e1565b60ff84111562000257576200025662000165565b5b8360020a91508482111562000271576200027062000165565b5b50620002e1565b5060208310610133831016604e8410600b8410161715620002b25782820a905083811115620002ac57620002ab62000165565b5b620002e1565b620002c18484846001620001a1565b92509050818404811115620002db57620002da62000165565b5b81810290505b9392505050565b6000819050919050565b6000620002ff82620002e8565b91506200030c83620002e8565b92506200033b7fffffffffffffffffffffffffffffffffffffffffffffffffffffffffffffffff8484620001fc565b905092915050565b60006200035082620002e8565b91506200035d83620002e8565b92508282026200036d81620002e8565b9150828204841483151762000387576200038662000165565b5b5092915050565b6200039981620002e8565b82525050565b6000602082019050620003b660008301846200038e565b92915050565b608051614d466200041060003960008181610fa90152818161171901528181611744015281816117af01528181611aaa01528181611ba801528181611f210152818161267301526139620152614d466000f3fe6080604052600436106102085760003560e01c806370c6e6fc11610118578063bcaedade116100a0578063df1dd8261161006f578063df1dd826146107c5578063df3b9592146107ee578063f76f8d781461082b578063f8d2108614610856578063feff9271146108815761020f565b8063bcaedade14610707578063c828371e14610732578063d84ade591461075d578063dd62ed3e146107885761020f565b8063a3f4df7e116100e7578063a3f4df7e14610620578063a457c2d71461064b578063a551062414610688578063a9059cbb146106b3578063ae5ec2e9146106f05761020f565b806370c6e6fc146105625780637a5f94cd1461058d5780639be572f6146105b85780639dc29fac146105e35761020f565b8063384539c51161019b57806340c10f191161016a57806340c10f1914610443578063439f5ac2146104805780634b561a16146104ab5780635b16b375146104e857806370a08231146105255761020f565b8063384539c51461037557806339509351146103b25780633f6fd903146103ef578063403658521461042c5761020f565b80632bed5fd8116101d75780632bed5fd8146102cd5780632e0f2625146102f657806332a22bb61461032157806332eabdc81461034a5761020f565b8063095ea7b31461021157806318160ddd1461024e5780631aa3a0081461027957806323b872dd146102905761020f565b3661020f57005b005b34801561021d57600080fd5b50610238600480360381019061023391906144ef565b6108aa565b604051610245919061454a565b60405180910390f35b34801561025a57600080fd5b5061026361099c565b6040516102709190614574565b60405180910390f35b34801561028557600080fd5b5061028e6109a5565b005b34801561029c57600080fd5b506102b760048036038101906102b2919061458f565b610b82565b6040516102c4919061454a565b60405180910390f35b3480156102d957600080fd5b506102f460048036038101906102ef91906144ef565b610fa7565b005b34801561030257600080fd5b5061030b6113ad565b60405161031891906145fe565b60405180910390f35b34801561032d57600080fd5b5061034860048036038101906103439190614619565b6113b2565b005b34801561035657600080fd5b5061035f6117ab565b60405161036c9190614655565b60405180910390f35b34801561038157600080fd5b5061039c60048036038101906103979190614670565b6117d3565b6040516103a99190614574565b60405180910390f35b3480156103be57600080fd5b506103d960048036038101906103d491906144ef565b61181c565b6040516103e6919061454a565b60405180910390f35b3480156103fb57600080fd5b50610416600480360381019061041191906144ef565b61199c565b6040516104239190614710565b60405180910390f35b34801561043857600080fd5b50610441611aa8565b005b34801561044f57600080fd5b5061046a600480360381019061046591906144ef565b611ba4565b604051610477919061454a565b60405180910390f35b34801561048c57600080fd5b50610495611d14565b6040516104a29190614574565b60405180910390f35b3480156104b757600080fd5b506104d260048036038101906104cd9190614619565b611d1e565b6040516104df9190614780565b60405180910390f35b3480156104f457600080fd5b5061050f600480360381019061050a9190614619565b611e1a565b60405161051c91906147ca565b60405180910390f35b34801561053157600080fd5b5061054c60048036038101906105479190614670565b611eb6565b6040516105599190614574565b60405180910390f35b34801561056e57600080fd5b50610577611eff565b6040516105849190614574565b60405180910390f35b34801561059957600080fd5b506105a2611f09565b6040516105af9190614574565b60405180910390f35b3480156105c457600080fd5b506105cd611f13565b6040516105da9190614574565b60405180910390f35b3480156105ef57600080fd5b5061060a600480360381019061060591906144ef565b611f1d565b604051610617919061454a565b60405180910390f35b34801561062c57600080fd5b50610635612152565b6040516106429190614875565b60405180910390f35b34801561065757600080fd5b50610672600480360381019061066d91906144ef565b61218b565b60405161067f919061454a565b60405180910390f35b34801561069457600080fd5b5061069d612415565b6040516106aa9190614574565b60405180910390f35b3480156106bf57600080fd5b506106da60048036038101906106d591906144ef565b61241f565b6040516106e7919061454a565b60405180910390f35b3480156106fc57600080fd5b50610705612671565b005b34801561071357600080fd5b5061071c613891565b6040516107299190614875565b60405180910390f35b34801561073e57600080fd5b506107476138ca565b6040516107549190614574565b60405180910390f35b34801561076957600080fd5b506107726138d4565b60405161077f9190614574565b60405180910390f35b34801561079457600080fd5b506107af60048036038101906107aa9190614897565b6138d9565b6040516107bc9190614574565b60405180910390f35b3480156107d157600080fd5b506107ec60048036038101906107e79190614619565b613960565b005b3480156107fa57600080fd5b5061081560048036038101906108109190614619565b613cb2565b6040516108229190614906565b60405180910390f35b34801561083757600080fd5b50610840613d4e565b60405161084d9190614875565b60405180910390f35b34801561086257600080fd5b5061086b613d87565b6040516108789190614574565b60405180910390f35b34801561088d57600080fd5b506108a860048036038101906108a39190614619565b613d91565b005b600081600260003373ffffffffffffffffffffffffffffffffffffffff1673ffffffffffffffffffffffffffffffffffffffff16815260200190815260200160002060008573ffffffffffffffffffffffffffffffffffffffff1673ffffffffffffffffffffffffffffffffffffffff168152602001908152602001600020819055508273ffffffffffffffffffffffffffffffffffffffff163373ffffffffffffffffffffffffffffffffffffffff167f8c5be1e5ebec7d5bd14f71427d1e84f3dd0314c0f7b2291e5b200ac8c7c3b9258460405161098a9190614574565b60405180910390a36001905092915050565b60008054905090565b600554600a60003373ffffffffffffffffffffffffffffffffffffffff1673ffffffffffffffffffffffffffffffffffffffff16815260200190815260200160002081905550600060405180608001604052803373ffffffffffffffffffffffffffffffffffffffff1681526020016000815260200160006004811115610a2f57610a2e614921565b5b8152602001428152509050600c81908060018154018082558091505060019003906000526020600020906004020160009091909190915060008201518160000160006101000a81548173ffffffffffffffffffffffffffffffffffffffff021916908373ffffffffffffffffffffffffffffffffffffffff1602179055506020820151816001015560408201518160020155606082015181600301555050600b600c90806001815401808255809150506001900390600052602060002001600090919091909150908054610b04929190614174565b507f8037f136c26fa76fb52b6c6b9afe3e7844af9a5a61d21f5ceb8c4d95d4fb6f09336000806004811115610b3c57610b3b614921565b5b8460600151604051610b519493929190614995565b60405180910390a160056000815480929190610b6c90614a09565b9190505550600c6000610b7f9190614251565b50565b60008073ffffffffffffffffffffffffffffffffffffffff168373ffffffffffffffffffffffffffffffffffffffff1603610bf457826040517f7f0d8f56000000000000000000000000000000000000000000000000000000008152600401610beb9190614655565b60405180910390fd5b600160008573ffffffffffffffffffffffffffffffffffffffff1673ffffffffffffffffffffffffffffffffffffffff16815260200190815260200160002054821115610cb957600160008573ffffffffffffffffffffffffffffffffffffffff1673ffffffffffffffffffffffffffffffffffffffff16815260200190815260200160002054826040517f8aef419b000000000000000000000000000000000000000000000000000000008152600401610cb0929190614a51565b60405180910390fd5b600260008573ffffffffffffffffffffffffffffffffffffffff1673ffffffffffffffffffffffffffffffffffffffff16815260200190815260200160002060003373ffffffffffffffffffffffffffffffffffffffff1673ffffffffffffffffffffffffffffffffffffffff16815260200190815260200160002054821115610df857600260008573ffffffffffffffffffffffffffffffffffffffff1673ffffffffffffffffffffffffffffffffffffffff16815260200190815260200160002060003373ffffffffffffffffffffffffffffffffffffffff1673ffffffffffffffffffffffffffffffffffffffff16815260200190815260200160002054826040517f63bb4be0000000000000000000000000000000000000000000000000000000008152600401610def929190614a51565b60405180910390fd5b81600160008673ffffffffffffffffffffffffffffffffffffffff1673ffffffffffffffffffffffffffffffffffffffff1681526020019081526020016000206000828254610e479190614a7a565b9250508190555081600160008573ffffffffffffffffffffffffffffffffffffffff1673ffffffffffffffffffffffffffffffffffffffff1681526020019081526020016000206000828254610e9d9190614aae565b9250508190555081600260008673ffffffffffffffffffffffffffffffffffffffff1673ffffffffffffffffffffffffffffffffffffffff16815260200190815260200160002060003373ffffffffffffffffffffffffffffffffffffffff1673ffffffffffffffffffffffffffffffffffffffff1681526020019081526020016000206000828254610f309190614a7a565b925050819055508273ffffffffffffffffffffffffffffffffffffffff168473ffffffffffffffffffffffffffffffffffffffff167fddf252ad1be2c89b69c2b068fc378daa952ba7f163c4a11628f55a4df523b3ef84604051610f949190614574565b60405180910390a3600190509392505050565b7f000000000000000000000000000000000000000000000000000000000000000073ffffffffffffffffffffffffffffffffffffffff163373ffffffffffffffffffffffffffffffffffffffff161461103757336040517fb7720faf00000000000000000000000000000000000000000000000000000000815260040161102e9190614655565b60405180910390fd5b6000600a60008473ffffffffffffffffffffffffffffffffffffffff1673ffffffffffffffffffffffffffffffffffffffff168152602001908152602001600020549050600060405180608001604052808573ffffffffffffffffffffffffffffffffffffffff168152602001848152602001600160048111156110be576110bd614921565b5b8152602001428152509050600b82815481106110dd576110dc614ae2565b5b9060005260206000200181908060018154018082558091505060019003906000526020600020906004020160009091909190915060008201518160000160006101000a81548173ffffffffffffffffffffffffffffffffffffffff021916908373ffffffffffffffffffffffffffffffffffffffff160217905550602082015181600101556040820151816002015560608201518160030155505060006001600b84815481106111905761118f614ae2565b5b90600052602060002001805490506111a89190614a7a565b90507f8037f136c26fa76fb52b6c6b9afe3e7844af9a5a61d21f5ceb8c4d95d4fb6f098585600160048111156111e1576111e0614921565b5b85606001516040516111f69493929190614b11565b60405180910390a16001811461136e57600b838154811061121a57611219614ae2565b5b90600052602060002001818154811061123657611235614ae2565b5b906000526020600020906004020160010154600b848154811061125c5761125b614ae2565b5b9060005260206000200160018154811061127957611278614ae2565b5b906000526020600020906004020160010160008282546112999190614aae565b9250508190555042600b84815481106112b5576112b4614ae2565b5b906000526020600020016001815481106112d2576112d1614ae2565b5b906000526020600020906004020160030181905550600b83815481106112fb576112fa614ae2565b5b9060005260206000200180548061131557611314614b56565b5b6001900381819060005260206000209060040201600080820160006101000a81549073ffffffffffffffffffffffffffffffffffffffff0219169055600182016000905560028201600090556003820160009055505090555b7f0741a520ce99882729e103ab767f5036a4d0cf5d975bc55047af9d86c174c2fa600060405161139e9190614b85565b60405180910390a15050505050565b601281565b600081036113ec576040517f2e40a99a00000000000000000000000000000000000000000000000000000000815260040160405180910390fd5b60075442111561143b57426006546007546040517f059403f000000000000000000000000000000000000000000000000000000000815260040161143293929190614ba0565b60405180910390fd5b600061144633611eb6565b905060006032836114579190614bd7565b9050818111156114a05781816040517f8aef419b000000000000000000000000000000000000000000000000000000008152600401611497929190614a51565b60405180910390fd5b6000600a60003373ffffffffffffffffffffffffffffffffffffffff1673ffffffffffffffffffffffffffffffffffffffff168152602001908152602001600020549050600060405180608001604052803373ffffffffffffffffffffffffffffffffffffffff1681526020018681526020016002600481111561152757611526614921565b5b8152602001428152509050600b828154811061154657611545614ae2565b5b9060005260206000200181908060018154018082558091505060019003906000526020600020906004020160009091909190915060008201518160000160006101000a81548173ffffffffffffffffffffffffffffffffffffffff021916908373ffffffffffffffffffffffffffffffffffffffff16021790555060208201518160010155604082015181600201556060820151816003015550507f8037f136c26fa76fb52b6c6b9afe3e7844af9a5a61d21f5ceb8c4d95d4fb6f0933866002600481111561161857611617614921565b5b846060015160405161162d9493929190614b11565b60405180910390a1600060405180604001604052803373ffffffffffffffffffffffffffffffffffffffff168152602001878152509050600e81908060018154018082558091505060019003906000526020600020906002020160009091909190915060008201518160000160006101000a81548173ffffffffffffffffffffffffffffffffffffffff021916908373ffffffffffffffffffffffffffffffffffffffff160217905550602082015181600101555050600960008154809291906116f690614a09565b9190505550856004600082825461170d9190614aae565b9250508190555061173e7f00000000000000000000000000000000000000000000000000000000000000008661218b565b506117697f0000000000000000000000000000000000000000000000000000000000000000856108aa565b507f66a846c2932c09a6c83bc18be37b41dc84de29ecf7f7cdadd4b9a39b1b3d1a94338760405161179b929190614c19565b60405180910390a1505050505050565b60007f0000000000000000000000000000000000000000000000000000000000000000905090565b6000600a60008373ffffffffffffffffffffffffffffffffffffffff1673ffffffffffffffffffffffffffffffffffffffff168152602001908152602001600020549050919050565b600081600260003373ffffffffffffffffffffffffffffffffffffffff1673ffffffffffffffffffffffffffffffffffffffff16815260200190815260200160002060008573ffffffffffffffffffffffffffffffffffffffff1673ffffffffffffffffffffffffffffffffffffffff16815260200190815260200160002060008282546118aa9190614aae565b925050819055508273ffffffffffffffffffffffffffffffffffffffff163373ffffffffffffffffffffffffffffffffffffffff167f8c5be1e5ebec7d5bd14f71427d1e84f3dd0314c0f7b2291e5b200ac8c7c3b925600260003373ffffffffffffffffffffffffffffffffffffffff1673ffffffffffffffffffffffffffffffffffffffff16815260200190815260200160002060008773ffffffffffffffffffffffffffffffffffffffff1673ffffffffffffffffffffffffffffffffffffffff1681526020019081526020016000205460405161198a9190614574565b60405180910390a36001905092915050565b6119a4614275565b600b600a60008573ffffffffffffffffffffffffffffffffffffffff1673ffffffffffffffffffffffffffffffffffffffff16815260200190815260200160002054815481106119f7576119f6614ae2565b5b906000526020600020018281548110611a1357611a12614ae2565b5b90600052602060002090600402016040518060800160405290816000820160009054906101000a900473ffffffffffffffffffffffffffffffffffffffff1673ffffffffffffffffffffffffffffffffffffffff1673ffffffffffffffffffffffffffffffffffffffff1681526020016001820154815260200160028201548152602001600382015481525050905092915050565b7f000000000000000000000000000000000000000000000000000000000000000073ffffffffffffffffffffffffffffffffffffffff163373ffffffffffffffffffffffffffffffffffffffff1614611b3857336040517fb7720faf000000000000000000000000000000000000000000000000000000008152600401611b2f9190614655565b60405180910390fd5b42600681905550610e10600654611b4f9190614aae565b600781905550600060048190555060006003819055507f63d859dfe6122a9b44f82878adcca8b281f61490464164bb5df15c3450e3e08c600654600754604051611b9a929190614a51565b60405180910390a1565b60007f000000000000000000000000000000000000000000000000000000000000000073ffffffffffffffffffffffffffffffffffffffff163373ffffffffffffffffffffffffffffffffffffffff1614611c3657336040517fb7720faf000000000000000000000000000000000000000000000000000000008152600401611c2d9190614655565b60405180910390fd5b81600080828254611c479190614aae565b9250508190555081600160008573ffffffffffffffffffffffffffffffffffffffff1673ffffffffffffffffffffffffffffffffffffffff1681526020019081526020016000206000828254611c9d9190614aae565b925050819055508273ffffffffffffffffffffffffffffffffffffffff16600073ffffffffffffffffffffffffffffffffffffffff167fddf252ad1be2c89b69c2b068fc378daa952ba7f163c4a11628f55a4df523b3ef84604051611d029190614574565b60405180910390a36001905092915050565b6000600754905090565b611d266142b3565b600f8281548110611d3a57611d39614ae2565b5b90600052602060002090600402016040518060800160405290816000820160009054906101000a900473ffffffffffffffffffffffffffffffffffffffff1673ffffffffffffffffffffffffffffffffffffffff1673ffffffffffffffffffffffffffffffffffffffff1681526020016001820160009054906101000a900473ffffffffffffffffffffffffffffffffffffffff1673ffffffffffffffffffffffffffffffffffffffff1673ffffffffffffffffffffffffffffffffffffffff168152602001600282015481526020016003820154815250509050919050565b611e22614307565b600e8281548110611e3657611e35614ae2565b5b90600052602060002090600202016040518060400160405290816000820160009054906101000a900473ffffffffffffffffffffffffffffffffffffffff1673ffffffffffffffffffffffffffffffffffffffff1673ffffffffffffffffffffffffffffffffffffffff1681526020016001820154815250509050919050565b6000600160008373ffffffffffffffffffffffffffffffffffffffff1673ffffffffffffffffffffffffffffffffffffffff168152602001908152602001600020549050919050565b6000600954905090565b6000600354905090565b6000600554905090565b60007f000000000000000000000000000000000000000000000000000000000000000073ffffffffffffffffffffffffffffffffffffffff163373ffffffffffffffffffffffffffffffffffffffff1614611faf57336040517fb7720faf000000000000000000000000000000000000000000000000000000008152600401611fa69190614655565b60405180910390fd5b600160008473ffffffffffffffffffffffffffffffffffffffff1673ffffffffffffffffffffffffffffffffffffffff1681526020019081526020016000205482111561207457600160008473ffffffffffffffffffffffffffffffffffffffff1673ffffffffffffffffffffffffffffffffffffffff16815260200190815260200160002054826040517f8aef419b00000000000000000000000000000000000000000000000000000000815260040161206b929190614a51565b60405180910390fd5b816000808282546120859190614a7a565b9250508190555081600160008573ffffffffffffffffffffffffffffffffffffffff1673ffffffffffffffffffffffffffffffffffffffff16815260200190815260200160002060008282546120db9190614a7a565b92505081905550600073ffffffffffffffffffffffffffffffffffffffff168373ffffffffffffffffffffffffffffffffffffffff167fddf252ad1be2c89b69c2b068fc378daa952ba7f163c4a11628f55a4df523b3ef846040516121409190614574565b60405180910390a36001905092915050565b6040518060400160405280600981526020017f4e524720546f6b656e000000000000000000000000000000000000000000000081525081565b600080600260003373ffffffffffffffffffffffffffffffffffffffff1673ffffffffffffffffffffffffffffffffffffffff16815260200190815260200160002060008573ffffffffffffffffffffffffffffffffffffffff1673ffffffffffffffffffffffffffffffffffffffff1681526020019081526020016000205490508083111561229c576000600260003373ffffffffffffffffffffffffffffffffffffffff1673ffffffffffffffffffffffffffffffffffffffff16815260200190815260200160002060008673ffffffffffffffffffffffffffffffffffffffff1673ffffffffffffffffffffffffffffffffffffffff16815260200190815260200160002081905550612329565b82816122a89190614a7a565b600260003373ffffffffffffffffffffffffffffffffffffffff1673ffffffffffffffffffffffffffffffffffffffff16815260200190815260200160002060008673ffffffffffffffffffffffffffffffffffffffff1673ffffffffffffffffffffffffffffffffffffffff168152602001908152602001600020819055505b8373ffffffffffffffffffffffffffffffffffffffff163373ffffffffffffffffffffffffffffffffffffffff167f8c5be1e5ebec7d5bd14f71427d1e84f3dd0314c0f7b2291e5b200ac8c7c3b925600260003373ffffffffffffffffffffffffffffffffffffffff1673ffffffffffffffffffffffffffffffffffffffff16815260200190815260200160002060008873ffffffffffffffffffffffffffffffffffffffff1673ffffffffffffffffffffffffffffffffffffffff168152602001908152602001600020546040516124029190614574565b60405180910390a3600191505092915050565b6000600454905090565b60008073ffffffffffffffffffffffffffffffffffffffff168373ffffffffffffffffffffffffffffffffffffffff160361249157826040517f7f0d8f560000000000000000000000000000000000000000000000000000000081526004016124889190614655565b60405180910390fd5b600160003373ffffffffffffffffffffffffffffffffffffffff1673ffffffffffffffffffffffffffffffffffffffff1681526020019081526020016000205482111561255657600160003373ffffffffffffffffffffffffffffffffffffffff1673ffffffffffffffffffffffffffffffffffffffff16815260200190815260200160002054826040517f8aef419b00000000000000000000000000000000000000000000000000000000815260040161254d929190614a51565b60405180910390fd5b81600160003373ffffffffffffffffffffffffffffffffffffffff1673ffffffffffffffffffffffffffffffffffffffff16815260200190815260200160002060008282546125a59190614a7a565b9250508190555081600160008573ffffffffffffffffffffffffffffffffffffffff1673ffffffffffffffffffffffffffffffffffffffff16815260200190815260200160002060008282546125fb9190614aae565b925050819055508273ffffffffffffffffffffffffffffffffffffffff163373ffffffffffffffffffffffffffffffffffffffff167fddf252ad1be2c89b69c2b068fc378daa952ba7f163c4a11628f55a4df523b3ef8460405161265f9190614574565b60405180910390a36001905092915050565b7f000000000000000000000000000000000000000000000000000000000000000073ffffffffffffffffffffffffffffffffffffffff163373ffffffffffffffffffffffffffffffffffffffff161461270157336040517fb7720faf0000000000000000000000000000000000000000000000000000000081526004016126f89190614655565b60405180910390fd5b426007819055506000600354905060006004549050600060085490506000600954905060006001905060008085871115612acb57866064876127439190614bd7565b61274d9190614c71565b925060005b85811015612ac5576000600d82815481106127705761276f614ae2565b5b90600052602060002090600202016040518060400160405290816000820160009054906101000a900473ffffffffffffffffffffffffffffffffffffffff1673ffffffffffffffffffffffffffffffffffffffff1673ffffffffffffffffffffffffffffffffffffffff168152602001600182015481525050905060648582602001516127fd9190614bd7565b6128079190614c71565b600d838154811061281b5761281a614ae2565b5b9060005260206000209060020201600101819055506000600a6000836000015173ffffffffffffffffffffffffffffffffffffffff1673ffffffffffffffffffffffffffffffffffffffff16815260200190815260200160002054905060006001600b83815481106128905761288f614ae2565b5b90600052602060002001805490506128a89190614a7a565b90506000600b83815481106128c0576128bf614ae2565b5b9060005260206000200182815481106128dc576128db614ae2565b5b9060005260206000209060040201600101549050606488826128fe9190614bd7565b6129089190614c71565b816129139190614a7a565b600b848154811061292757612926614ae2565b5b9060005260206000200160018154811061294457612943614ae2565b5b906000526020600020906004020160010160008282546129649190614aae565b9250508190555042600b84815481106129805761297f614ae2565b5b9060005260206000200160018154811061299d5761299c614ae2565b5b906000526020600020906004020160030181905550606488826129c09190614bd7565b6129ca9190614c71565b600b84815481106129de576129dd614ae2565b5b9060005260206000200183815481106129fa576129f9614ae2565b5b90600052602060002090600402016001018190555060036004811115612a2357612a22614921565b5b600b8481548110612a3757612a36614ae2565b5b906000526020600020018381548110612a5357612a52614ae2565b5b90600052602060002090600402016002018190555042600b8481548110612a7d57612a7c614ae2565b5b906000526020600020018381548110612a9957612a98614ae2565b5b906000526020600020906004020160030181905550505050508080612abd90614a09565b915050612752565b50612d1a565b85871015612d195785606488612ae19190614bd7565b612aeb9190614c71565b925060005b84811015612d17576000600e8281548110612b0e57612b0d614ae2565b5b90600052602060002090600202016040518060400160405290816000820160009054906101000a900473ffffffffffffffffffffffffffffffffffffffff1673ffffffffffffffffffffffffffffffffffffffff1673ffffffffffffffffffffffffffffffffffffffff16815260200160018201548152505090506000600a6000836000015173ffffffffffffffffffffffffffffffffffffffff1673ffffffffffffffffffffffffffffffffffffffff1681526020019081526020016000205490506064868360200151612be39190614bd7565b612bed9190614c71565b600e8481548110612c0157612c00614ae2565b5b9060005260206000209060020201600101819055508160200151600b8281548110612c2f57612c2e614ae2565b5b90600052602060002001600181548110612c4c57612c4b614ae2565b5b90600052602060002090600402016001018190555060036004811115612c7557612c74614921565b5b600b8281548110612c8957612c88614ae2565b5b90600052602060002001600181548110612ca657612ca5614ae2565b5b90600052602060002090600402016002018190555042600b8281548110612cd057612ccf614ae2565b5b90600052602060002001600181548110612ced57612cec614ae2565b5b90600052602060002090600402016003018190555050508080612d0f90614a09565b915050612af0565b505b5b6000600d8381548110612d3057612d2f614ae2565b5b90600052602060002090600202016040518060400160405290816000820160009054906101000a900473ffffffffffffffffffffffffffffffffffffffff1673ffffffffffffffffffffffffffffffffffffffff1673ffffffffffffffffffffffffffffffffffffffff16815260200160018201548152505090506000600e8381548110612dc157612dc0614ae2565b5b90600052602060002090600202016040518060400160405290816000820160009054906101000a900473ffffffffffffffffffffffffffffffffffffffff1673ffffffffffffffffffffffffffffffffffffffff1673ffffffffffffffffffffffffffffffffffffffff16815260200160018201548152505090505b80602001518260200151111561309457806020015182602001818151612e639190614a7a565b9150818152505060006040518060800160405280846000015173ffffffffffffffffffffffffffffffffffffffff168152602001836000015173ffffffffffffffffffffffffffffffffffffffff16815260200183602001518152602001428152509050600f81908060018154018082558091505060019003906000526020600020906004020160009091909190915060008201518160000160006101000a81548173ffffffffffffffffffffffffffffffffffffffff021916908373ffffffffffffffffffffffffffffffffffffffff16021790555060208201518160010160006101000a81548173ffffffffffffffffffffffffffffffffffffffff021916908373ffffffffffffffffffffffffffffffffffffffff160217905550604082015181600201556060820151816003015550507f989a384e7d6ac35c0f20d2bd63c813f15081bdebca21aef9b3cb7de5688833168160000151826020015183604001518460600151604051612fdc9493929190614ca2565b60405180910390a18380612fef90614a09565b945050868410612fff57506135c3565b600e848154811061301357613012614ae2565b5b90600052602060002090600202016040518060400160405290816000820160009054906101000a900473ffffffffffffffffffffffffffffffffffffffff1673ffffffffffffffffffffffffffffffffffffffff1673ffffffffffffffffffffffffffffffffffffffff1681526020016001820154815250509150506135bc565b8060200151826020015110156132eb578160200151816020018181516130ba9190614a7a565b9150818152505060006040518060800160405280846000015173ffffffffffffffffffffffffffffffffffffffff168152602001836000015173ffffffffffffffffffffffffffffffffffffffff16815260200184602001518152602001428152509050600f81908060018154018082558091505060019003906000526020600020906004020160009091909190915060008201518160000160006101000a81548173ffffffffffffffffffffffffffffffffffffffff021916908373ffffffffffffffffffffffffffffffffffffffff16021790555060208201518160010160006101000a81548173ffffffffffffffffffffffffffffffffffffffff021916908373ffffffffffffffffffffffffffffffffffffffff160217905550604082015181600201556060820151816003015550507f989a384e7d6ac35c0f20d2bd63c813f15081bdebca21aef9b3cb7de56888331681600001518260200151836040015184606001516040516132339493929190614ca2565b60405180910390a1848061324690614a09565b95505087851061325657506135c3565b600d858154811061326a57613269614ae2565b5b90600052602060002090600202016040518060400160405290816000820160009054906101000a900473ffffffffffffffffffffffffffffffffffffffff1673ffffffffffffffffffffffffffffffffffffffff1673ffffffffffffffffffffffffffffffffffffffff1681526020016001820154815250509250506135bb565b60006040518060800160405280846000015173ffffffffffffffffffffffffffffffffffffffff168152602001836000015173ffffffffffffffffffffffffffffffffffffffff16815260200184602001518152602001428152509050600f81908060018154018082558091505060019003906000526020600020906004020160009091909190915060008201518160000160006101000a81548173ffffffffffffffffffffffffffffffffffffffff021916908373ffffffffffffffffffffffffffffffffffffffff16021790555060208201518160010160006101000a81548173ffffffffffffffffffffffffffffffffffffffff021916908373ffffffffffffffffffffffffffffffffffffffff160217905550604082015181600201556060820151816003015550507f989a384e7d6ac35c0f20d2bd63c813f15081bdebca21aef9b3cb7de568883316816000015182602001518360400151846060015160405161345d9493929190614ca2565b60405180910390a1848061347090614a09565b955050838061347e90614a09565b94505087851061348e57506135c3565b86841061349b57506135c3565b600d85815481106134af576134ae614ae2565b5b90600052602060002090600202016040518060400160405290816000820160009054906101000a900473ffffffffffffffffffffffffffffffffffffffff1673ffffffffffffffffffffffffffffffffffffffff1673ffffffffffffffffffffffffffffffffffffffff1681526020016001820154815250509250600e848154811061353e5761353d614ae2565b5b90600052602060002090600202016040518060400160405290816000820160009054906101000a900473ffffffffffffffffffffffffffffffffffffffff1673ffffffffffffffffffffffffffffffffffffffff1673ffffffffffffffffffffffffffffffffffffffff1681526020016001820154815250509150505b5b6001612e3d575b6000600554905060005b8181101561384c576000600b82815481106135eb576135ea614ae2565b5b90600052602060002001805490509050600060018261360a9190614a7a565b90505b6001811115613837576000600b848154811061362c5761362b614ae2565b5b90600052602060002001828154811061364857613647614ae2565b5b906000526020600020906004020160010154036138245760008190505b6001836136729190614a7a565b81101561379c57600b848154811061368d5761368c614ae2565b5b906000526020600020016001826136a49190614aae565b815481106136b5576136b4614ae2565b5b9060005260206000209060040201600b85815481106136d7576136d6614ae2565b5b9060005260206000200182815481106136f3576136f2614ae2565b5b90600052602060002090600402016000820160009054906101000a900473ffffffffffffffffffffffffffffffffffffffff168160000160006101000a81548173ffffffffffffffffffffffffffffffffffffffff021916908373ffffffffffffffffffffffffffffffffffffffff160217905550600182015481600101556002820154816002015560038201548160030155905050808061379490614a09565b915050613665565b50600b83815481106137b1576137b0614ae2565b5b906000526020600020018054806137cb576137ca614b56565b5b6001900381819060005260206000209060040201600080820160006101000a81549073ffffffffffffffffffffffffffffffffffffffff0219169055600182016000905560028201600090556003820160009055505090555b808061382f90614ce7565b91505061360d565b5050808061384490614a09565b9150506135cd565b507f0741a520ce99882729e103ab767f5036a4d0cf5d975bc55047af9d86c174c2fa600060405161387d9190614b85565b60405180910390a150505050505050505050565b6040518060400160405280600e81526020017f4e524720546f6b656e2076312e3000000000000000000000000000000000000081525081565b6000600654905090565b603281565b6000600260008473ffffffffffffffffffffffffffffffffffffffff1673ffffffffffffffffffffffffffffffffffffffff16815260200190815260200160002060008373ffffffffffffffffffffffffffffffffffffffff1673ffffffffffffffffffffffffffffffffffffffff16815260200190815260200160002054905092915050565b7f000000000000000000000000000000000000000000000000000000000000000073ffffffffffffffffffffffffffffffffffffffff163373ffffffffffffffffffffffffffffffffffffffff16146139f057336040517fb7720faf0000000000000000000000000000000000000000000000000000000081526004016139e79190614655565b60405180910390fd5b60008190506000600f80549050905060005b81811015613c66576000600f8281548110613a2057613a1f614ae2565b5b90600052602060002090600402016040518060800160405290816000820160009054906101000a900473ffffffffffffffffffffffffffffffffffffffff1673ffffffffffffffffffffffffffffffffffffffff1673ffffffffffffffffffffffffffffffffffffffff1681526020016001820160009054906101000a900473ffffffffffffffffffffffffffffffffffffffff1673ffffffffffffffffffffffffffffffffffffffff1673ffffffffffffffffffffffffffffffffffffffff1681526020016002820154815260200160038201548152505090506000600a6000836020015173ffffffffffffffffffffffffffffffffffffffff1673ffffffffffffffffffffffffffffffffffffffff168152602001908152602001600020549050613b6582602001518360000151878560400151613b609190614bd7565b610b82565b508160400151600b8281548110613b7f57613b7e614ae2565b5b90600052602060002001600181548110613b9c57613b9b614ae2565b5b906000526020600020906004020160010181905550600480811115613bc457613bc3614921565b5b600b8281548110613bd857613bd7614ae2565b5b90600052602060002001600181548110613bf557613bf4614ae2565b5b90600052602060002090600402016002018190555042600b8281548110613c1f57613c1e614ae2565b5b90600052602060002001600181548110613c3c57613c3b614ae2565b5b90600052602060002090600402016003018190555050508080613c5e90614a09565b915050613a02565b50600f6000613c759190614337565b7f0741a520ce99882729e103ab767f5036a4d0cf5d975bc55047af9d86c174c2fa6000604051613ca59190614b85565b60405180910390a1505050565b613cba61435b565b600d8281548110613cce57613ccd614ae2565b5b90600052602060002090600202016040518060400160405290816000820160009054906101000a900473ffffffffffffffffffffffffffffffffffffffff1673ffffffffffffffffffffffffffffffffffffffff1673ffffffffffffffffffffffffffffffffffffffff1681526020016001820154815250509050919050565b6040518060400160405280600381526020017f4e5247000000000000000000000000000000000000000000000000000000000081525081565b6000600854905090565b6000600a60003373ffffffffffffffffffffffffffffffffffffffff1673ffffffffffffffffffffffffffffffffffffffff1681526020019081526020016000205490506000600b8281548110613deb57613dea614ae2565b5b90600052602060002001600181548110613e0857613e07614ae2565b5b906000526020600020906004020160010154905082811015613e635780836040517f5769d835000000000000000000000000000000000000000000000000000000008152600401613e5a929190614a51565b60405180910390fd5b600754421115613eb257426006546007546040517f059403f0000000000000000000000000000000000000000000000000000000008152600401613ea993929190614ba0565b60405180910390fd5b600060405180608001604052803373ffffffffffffffffffffffffffffffffffffffff16815260200185815260200160026004811115613ef557613ef4614921565b5b8152602001428152509050600b8381548110613f1457613f13614ae2565b5b9060005260206000200181908060018154018082558091505060019003906000526020600020906004020160009091909190915060008201518160000160006101000a81548173ffffffffffffffffffffffffffffffffffffffff021916908373ffffffffffffffffffffffffffffffffffffffff16021790555060208201518160010155604082015181600201556060820151816003015550508382613fbb9190614a7a565b600b8481548110613fcf57613fce614ae2565b5b90600052602060002001600181548110613fec57613feb614ae2565b5b9060005260206000209060040201600101819055507f8037f136c26fa76fb52b6c6b9afe3e7844af9a5a61d21f5ceb8c4d95d4fb6f0933856002600481111561403857614037614921565b5b846060015160405161404d9493929190614b11565b60405180910390a1600060405180604001604052803373ffffffffffffffffffffffffffffffffffffffff168152602001868152509050600d81908060018154018082558091505060019003906000526020600020906002020160009091909190915060008201518160000160006101000a81548173ffffffffffffffffffffffffffffffffffffffff021916908373ffffffffffffffffffffffffffffffffffffffff1602179055506020820151816001015550506008600081548092919061411690614a09565b9190505550846003600082825461412d9190614aae565b925050819055507ffe101e991f405e750bf2c2020dffc0828f00df098e09cce61105f5ffa6e5ee8b3386604051614165929190614c19565b60405180910390a15050505050565b8280548282559060005260206000209060040281019282156142405760005260206000209160040282015b8281111561423f5782826000820160009054906101000a900473ffffffffffffffffffffffffffffffffffffffff168160000160006101000a81548173ffffffffffffffffffffffffffffffffffffffff021916908373ffffffffffffffffffffffffffffffffffffffff16021790555060018201548160010155600282015481600201556003820154816003015550509160040191906004019061419f565b5b50905061424d919061438b565b5090565b5080546000825560040290600052602060002090810190614272919061438b565b50565b6040518060800160405280600073ffffffffffffffffffffffffffffffffffffffff1681526020016000815260200160008152602001600081525090565b6040518060800160405280600073ffffffffffffffffffffffffffffffffffffffff168152602001600073ffffffffffffffffffffffffffffffffffffffff16815260200160008152602001600081525090565b6040518060400160405280600073ffffffffffffffffffffffffffffffffffffffff168152602001600081525090565b508054600082556004029060005260206000209081019061435891906143e1565b50565b6040518060400160405280600073ffffffffffffffffffffffffffffffffffffffff168152602001600081525090565b5b808211156143dd57600080820160006101000a81549073ffffffffffffffffffffffffffffffffffffffff02191690556001820160009055600282016000905560038201600090555060040161438c565b5090565b5b8082111561445257600080820160006101000a81549073ffffffffffffffffffffffffffffffffffffffff02191690556001820160006101000a81549073ffffffffffffffffffffffffffffffffffffffff021916905560028201600090556003820160009055506004016143e2565b5090565b600080fd5b600073ffffffffffffffffffffffffffffffffffffffff82169050919050565b60006144868261445b565b9050919050565b6144968161447b565b81146144a157600080fd5b50565b6000813590506144b38161448d565b92915050565b6000819050919050565b6144cc816144b9565b81146144d757600080fd5b50565b6000813590506144e9816144c3565b92915050565b6000806040838503121561450657614505614456565b5b6000614514858286016144a4565b9250506020614525858286016144da565b9150509250929050565b60008115159050919050565b6145448161452f565b82525050565b600060208201905061455f600083018461453b565b92915050565b61456e816144b9565b82525050565b60006020820190506145896000830184614565565b92915050565b6000806000606084860312156145a8576145a7614456565b5b60006145b6868287016144a4565b93505060206145c7868287016144a4565b92505060406145d8868287016144da565b9150509250925092565b600060ff82169050919050565b6145f8816145e2565b82525050565b600060208201905061461360008301846145ef565b92915050565b60006020828403121561462f5761462e614456565b5b600061463d848285016144da565b91505092915050565b61464f8161447b565b82525050565b600060208201905061466a6000830184614646565b92915050565b60006020828403121561468657614685614456565b5b6000614694848285016144a4565b91505092915050565b6146a68161447b565b82525050565b6146b5816144b9565b82525050565b6080820160008201516146d1600085018261469d565b5060208201516146e460208501826146ac565b5060408201516146f760408501826146ac565b50606082015161470a60608501826146ac565b50505050565b600060808201905061472560008301846146bb565b92915050565b608082016000820151614741600085018261469d565b506020820151614754602085018261469d565b50604082015161476760408501826146ac565b50606082015161477a60608501826146ac565b50505050565b6000608082019050614795600083018461472b565b92915050565b6040820160008201516147b1600085018261469d565b5060208201516147c460208501826146ac565b50505050565b60006040820190506147df600083018461479b565b92915050565b600081519050919050565b600082825260208201905092915050565b60005b8381101561481f578082015181840152602081019050614804565b60008484015250505050565b6000601f19601f8301169050919050565b6000614847826147e5565b61485181856147f0565b9350614861818560208601614801565b61486a8161482b565b840191505092915050565b6000602082019050818103600083015261488f818461483c565b905092915050565b600080604083850312156148ae576148ad614456565b5b60006148bc858286016144a4565b92505060206148cd858286016144a4565b9150509250929050565b6040820160008201516148ed600085018261469d565b50602082015161490060208501826146ac565b50505050565b600060408201905061491b60008301846148d7565b92915050565b7f4e487b7100000000000000000000000000000000000000000000000000000000600052602160045260246000fd5b6000819050919050565b6000819050919050565b600061497f61497a61497584614950565b61495a565b6144b9565b9050919050565b61498f81614964565b82525050565b60006080820190506149aa6000830187614646565b6149b76020830186614986565b6149c46040830185614565565b6149d16060830184614565565b95945050505050565b7f4e487b7100000000000000000000000000000000000000000000000000000000600052601160045260246000fd5b6000614a14826144b9565b91507fffffffffffffffffffffffffffffffffffffffffffffffffffffffffffffffff8203614a4657614a456149da565b5b600182019050919050565b6000604082019050614a666000830185614565565b614a736020830184614565565b9392505050565b6000614a85826144b9565b9150614a90836144b9565b9250828203905081811115614aa857614aa76149da565b5b92915050565b6000614ab9826144b9565b9150614ac4836144b9565b9250828201905080821115614adc57614adb6149da565b5b92915050565b7f4e487b7100000000000000000000000000000000000000000000000000000000600052603260045260246000fd5b6000608082019050614b266000830187614646565b614b336020830186614565565b614b406040830185614565565b614b4d6060830184614565565b95945050505050565b7f4e487b7100000000000000000000000000000000000000000000000000000000600052603160045260246000fd5b6000602082019050614b9a6000830184614986565b92915050565b6000606082019050614bb56000830186614565565b614bc26020830185614565565b614bcf6040830184614565565b949350505050565b6000614be2826144b9565b9150614bed836144b9565b9250828202614bfb816144b9565b91508282048414831517614c1257614c116149da565b5b5092915050565b6000604082019050614c2e6000830185614646565b614c3b6020830184614565565b9392505050565b7f4e487b7100000000000000000000000000000000000000000000000000000000600052601260045260246000fd5b6000614c7c826144b9565b9150614c87836144b9565b925082614c9757614c96614c42565b5b828204905092915050565b6000608082019050614cb76000830187614646565b614cc46020830186614646565b614cd16040830185614565565b614cde6060830184614565565b95945050505050565b6000614cf2826144b9565b915060008203614d0557614d046149da565b5b60018203905091905056fea26469706673582212208f388ab6c25bd9df6a2dd7bd821af07e60c2f82eb7e5e8c9b13fe534843f041e64736f6c63430008120033",
  "linkReferences": {},
  "deployedLinkReferences": {}
}